{
  "contractName": "AssetRegistree",
  "abi": [
    {
      "constant": true,
      "inputs": [
        {
          "name": "",
          "type": "address"
        }
      ],
      "name": "ownerAddressToAsset",
      "outputs": [
        {
          "name": "asset_owner",
          "type": "address"
        },
        {
          "name": "assetID",
          "type": "uint256"
        },
        {
          "name": "name",
          "type": "string"
        },
        {
          "name": "description",
          "type": "string"
        },
        {
          "name": "date_of_acquisition",
          "type": "string"
        }
      ],
      "payable": false,
      "stateMutability": "view",
      "type": "function"
    },
    {
      "constant": true,
      "inputs": [],
      "name": "assetCounter",
      "outputs": [
        {
          "name": "",
          "type": "uint256"
        }
      ],
      "payable": false,
      "stateMutability": "view",
      "type": "function"
    },
    {
      "constant": true,
      "inputs": [
        {
          "name": "",
          "type": "address"
        }
      ],
      "name": "assetCheck",
      "outputs": [
        {
          "name": "",
          "type": "bool"
        }
      ],
      "payable": false,
      "stateMutability": "view",
      "type": "function"
    },
    {
      "constant": true,
      "inputs": [
        {
          "name": "",
          "type": "uint256"
        }
      ],
      "name": "unverifiedAssets",
      "outputs": [
        {
          "name": "asset_owner",
          "type": "address"
        },
        {
          "name": "assetID",
          "type": "uint256"
        },
        {
          "name": "name",
          "type": "string"
        },
        {
          "name": "description",
          "type": "string"
        },
        {
          "name": "date_of_acquisition",
          "type": "string"
        }
      ],
      "payable": false,
      "stateMutability": "view",
      "type": "function"
    },
    {
      "constant": true,
      "inputs": [
        {
          "name": "",
          "type": "uint256"
        }
      ],
      "name": "grantors",
      "outputs": [
        {
          "name": "",
          "type": "address"
        }
      ],
      "payable": false,
      "stateMutability": "view",
      "type": "function"
    },
    {
      "constant": true,
      "inputs": [
        {
          "name": "",
          "type": "uint256"
        }
      ],
      "name": "idToOwnerAddress",
      "outputs": [
        {
          "name": "",
          "type": "address"
        }
      ],
      "payable": false,
      "stateMutability": "view",
      "type": "function"
    },
    {
      "constant": true,
      "inputs": [
        {
          "name": "",
          "type": "uint256"
        }
      ],
      "name": "verifiers",
      "outputs": [
        {
          "name": "",
          "type": "address"
        }
      ],
      "payable": false,
      "stateMutability": "view",
      "type": "function"
    },
    {
      "constant": true,
      "inputs": [
        {
          "name": "",
          "type": "uint256"
        }
      ],
      "name": "idToAsset",
      "outputs": [
        {
          "name": "asset_owner",
          "type": "address"
        },
        {
          "name": "assetID",
          "type": "uint256"
        },
        {
          "name": "name",
          "type": "string"
        },
        {
          "name": "description",
          "type": "string"
        },
        {
          "name": "date_of_acquisition",
          "type": "string"
        }
      ],
      "payable": false,
      "stateMutability": "view",
      "type": "function"
    },
    {
      "constant": true,
      "inputs": [
        {
          "name": "",
          "type": "uint256"
        }
      ],
      "name": "assets",
      "outputs": [
        {
          "name": "asset_owner",
          "type": "address"
        },
        {
          "name": "assetID",
          "type": "uint256"
        },
        {
          "name": "name",
          "type": "string"
        },
        {
          "name": "description",
          "type": "string"
        },
        {
          "name": "date_of_acquisition",
          "type": "string"
        }
      ],
      "payable": false,
      "stateMutability": "view",
      "type": "function"
    },
    {
      "constant": true,
      "inputs": [
        {
          "name": "",
          "type": "uint256"
        }
      ],
      "name": "verifiedAssets",
      "outputs": [
        {
          "name": "asset_owner",
          "type": "address"
        },
        {
          "name": "assetID",
          "type": "uint256"
        },
        {
          "name": "name",
          "type": "string"
        },
        {
          "name": "description",
          "type": "string"
        },
        {
          "name": "date_of_acquisition",
          "type": "string"
        }
      ],
      "payable": false,
      "stateMutability": "view",
      "type": "function"
    },
    {
      "inputs": [],
      "payable": false,
      "stateMutability": "nonpayable",
      "type": "constructor"
    },
    {
      "anonymous": false,
      "inputs": [
        {
          "indexed": true,
          "name": "_asset_owner",
          "type": "address"
        },
        {
          "indexed": false,
          "name": "_registerar",
          "type": "address"
        },
        {
          "indexed": false,
          "name": "_name",
          "type": "string"
        },
        {
          "indexed": false,
          "name": "_date_of_acquisition",
          "type": "string"
        }
      ],
      "name": "AssetRegistered",
      "type": "event"
    },
    {
      "anonymous": false,
      "inputs": [
        {
          "indexed": true,
          "name": "_assetID",
          "type": "uint256"
        },
        {
          "indexed": false,
          "name": "_owner",
          "type": "address"
        }
      ],
      "name": "AssetVerified",
      "type": "event"
    },
    {
      "constant": false,
      "inputs": [
        {
          "name": "_asset_owner",
          "type": "address"
        },
        {
          "name": "_name",
          "type": "string"
        },
        {
          "name": "_description",
          "type": "string"
        },
        {
          "name": "_date_of_acquisition",
          "type": "string"
        }
      ],
      "name": "registerAsset",
      "outputs": [],
      "payable": false,
      "stateMutability": "nonpayable",
      "type": "function"
    },
    {
      "constant": true,
      "inputs": [],
      "name": "getAssetsRegistered",
      "outputs": [
        {
          "name": "",
          "type": "uint256"
        }
      ],
      "payable": false,
      "stateMutability": "view",
      "type": "function"
    },
    {
      "constant": true,
      "inputs": [],
      "name": "getUnverifiedAssets",
      "outputs": [
        {
          "name": "",
          "type": "uint256"
        }
      ],
      "payable": false,
      "stateMutability": "view",
      "type": "function"
    },
    {
      "constant": false,
      "inputs": [
        {
          "name": "_assetID",
          "type": "uint256"
        }
      ],
      "name": "verifyAsset",
      "outputs": [],
      "payable": false,
      "stateMutability": "nonpayable",
      "type": "function"
    },
    {
      "constant": true,
      "inputs": [],
      "name": "getVerifiedAssets",
      "outputs": [
        {
          "name": "",
          "type": "uint256"
        }
      ],
      "payable": false,
      "stateMutability": "view",
      "type": "function"
    },
    {
      "constant": true,
      "inputs": [],
      "name": "getAllAssets",
      "outputs": [
        {
          "name": "",
          "type": "uint256[]"
        }
      ],
      "payable": false,
      "stateMutability": "view",
      "type": "function"
    }
  ],
  "bytecode": "0x60806040526000600c5534801561001557600080fd5b50336000806101000a81548173ffffffffffffffffffffffffffffffffffffffff021916908373ffffffffffffffffffffffffffffffffffffffff160217905550612834806100656000396000f3006080604052600436106100e6576000357c0100000000000000000000000000000000000000000000000000000000900463ffffffff1680630efe0100146100eb5780632acada4d146101165780632df6a3c7146101825780634b9187861461035057806359fd285c1461037b578063629f6e6f146103a85780636859e3fd146103d3578063897b6744146103fe578063a3ac085614610459578063a3d591f414610611578063ab649b0a1461067e578063ac1eff68146106eb578063c688fca714610758578063cb72f9f814610910578063cf35bdd014610a25578063e8a60e7014610bdd575b600080fd5b3480156100f757600080fd5b50610100610d95565b6040518082815260200191505060405180910390f35b34801561012257600080fd5b5061012b610e49565b6040518080602001828103825283818151815260200191508051906020019060200280838360005b8381101561016e578082015181840152602081019050610153565b505050509050019250505060405180910390f35b34801561018e57600080fd5b506101c3600480360381019080803573ffffffffffffffffffffffffffffffffffffffff169060200190929190505050610ee8565b604051808673ffffffffffffffffffffffffffffffffffffffff1673ffffffffffffffffffffffffffffffffffffffff168152602001858152602001806020018060200180602001848103845287818151815260200191508051906020019080838360005b83811015610243578082015181840152602081019050610228565b50505050905090810190601f1680156102705780820380516001836020036101000a031916815260200191505b50848103835286818151815260200191508051906020019080838360005b838110156102a957808201518184015260208101905061028e565b50505050905090810190601f1680156102d65780820380516001836020036101000a031916815260200191505b50848103825285818151815260200191508051906020019080838360005b8381101561030f5780820151818401526020810190506102f4565b50505050905090810190601f16801561033c5780820380516001836020036101000a031916815260200191505b509850505050505050505060405180910390f35b34801561035c57600080fd5b50610365611106565b6040518082815260200191505060405180910390f35b34801561038757600080fd5b506103a66004803603810190808035906020019092919050505061110c565b005b3480156103b457600080fd5b506103bd611501565b6040518082815260200191505060405180910390f35b3480156103df57600080fd5b506103e86115b5565b6040518082815260200191505060405180910390f35b34801561040a57600080fd5b5061043f600480360381019080803573ffffffffffffffffffffffffffffffffffffffff169060200190929190505050611669565b604051808215151515815260200191505060405180910390f35b34801561046557600080fd5b5061048460048036038101908080359060200190929190505050611689565b604051808673ffffffffffffffffffffffffffffffffffffffff1673ffffffffffffffffffffffffffffffffffffffff168152602001858152602001806020018060200180602001848103845287818151815260200191508051906020019080838360005b838110156105045780820151818401526020810190506104e9565b50505050905090810190601f1680156105315780820380516001836020036101000a031916815260200191505b50848103835286818151815260200191508051906020019080838360005b8381101561056a57808201518184015260208101905061054f565b50505050905090810190601f1680156105975780820380516001836020036101000a031916815260200191505b50848103825285818151815260200191508051906020019080838360005b838110156105d05780820151818401526020810190506105b5565b50505050905090810190601f1680156105fd5780820380516001836020036101000a031916815260200191505b509850505050505050505060405180910390f35b34801561061d57600080fd5b5061063c600480360381019080803590602001909291905050506118b6565b604051808273ffffffffffffffffffffffffffffffffffffffff1673ffffffffffffffffffffffffffffffffffffffff16815260200191505060405180910390f35b34801561068a57600080fd5b506106a9600480360381019080803590602001909291905050506118f4565b604051808273ffffffffffffffffffffffffffffffffffffffff1673ffffffffffffffffffffffffffffffffffffffff16815260200191505060405180910390f35b3480156106f757600080fd5b5061071660048036038101908080359060200190929190505050611927565b604051808273ffffffffffffffffffffffffffffffffffffffff1673ffffffffffffffffffffffffffffffffffffffff16815260200191505060405180910390f35b34801561076457600080fd5b5061078360048036038101908080359060200190929190505050611965565b604051808673ffffffffffffffffffffffffffffffffffffffff1673ffffffffffffffffffffffffffffffffffffffff168152602001858152602001806020018060200180602001848103845287818151815260200191508051906020019080838360005b838110156108035780820151818401526020810190506107e8565b50505050905090810190601f1680156108305780820380516001836020036101000a031916815260200191505b50848103835286818151815260200191508051906020019080838360005b8381101561086957808201518184015260208101905061084e565b50505050905090810190601f1680156108965780820380516001836020036101000a031916815260200191505b50848103825285818151815260200191508051906020019080838360005b838110156108cf5780820151818401526020810190506108b4565b50505050905090810190601f1680156108fc5780820380516001836020036101000a031916815260200191505b509850505050505050505060405180910390f35b34801561091c57600080fd5b50610a23600480360381019080803573ffffffffffffffffffffffffffffffffffffffff169060200190929190803590602001908201803590602001908080601f0160208091040260200160405190810160405280939291908181526020018383808284378201915050505050509192919290803590602001908201803590602001908080601f0160208091040260200160405190810160405280939291908181526020018383808284378201915050505050509192919290803590602001908201803590602001908080601f0160208091040260200160405190810160405280939291908181526020018383808284378201915050505050509192919290505050611b83565b005b348015610a3157600080fd5b50610a5060048036038101908080359060200190929190505050612144565b604051808673ffffffffffffffffffffffffffffffffffffffff1673ffffffffffffffffffffffffffffffffffffffff168152602001858152602001806020018060200180602001848103845287818151815260200191508051906020019080838360005b83811015610ad0578082015181840152602081019050610ab5565b50505050905090810190601f168015610afd5780820380516001836020036101000a031916815260200191505b50848103835286818151815260200191508051906020019080838360005b83811015610b36578082015181840152602081019050610b1b565b50505050905090810190601f168015610b635780820380516001836020036101000a031916815260200191505b50848103825285818151815260200191508051906020019080838360005b83811015610b9c578082015181840152602081019050610b81565b50505050905090810190601f168015610bc95780820380516001836020036101000a031916815260200191505b509850505050505050505060405180910390f35b348015610be957600080fd5b50610c0860048036038101908080359060200190929190505050612371565b604051808673ffffffffffffffffffffffffffffffffffffffff1673ffffffffffffffffffffffffffffffffffffffff168152602001858152602001806020018060200180602001848103845287818151815260200191508051906020019080838360005b83811015610c88578082015181840152602081019050610c6d565b50505050905090810190601f168015610cb55780820380516001836020036101000a031916815260200191505b50848103835286818151815260200191508051906020019080838360005b83811015610cee578082015181840152602081019050610cd3565b50505050905090810190601f168015610d1b5780820380516001836020036101000a031916815260200191505b50848103825285818151815260200191508051906020019080838360005b83811015610d54578082015181840152602081019050610d39565b50505050905090810190601f168015610d815780820380516001836020036101000a031916815260200191505b509850505050505050505060405180910390f35b600080600080600780549050111515610e16576040517f08c379a00000000000000000000000000000000000000000000000000000000081526004018080602001828103825260148152602001807f6e6f2061737365747320756e766572696669656400000000000000000000000081525060200191505060405180910390fd5b60009150600090505b600780549050811015610e415781806001019250508080600101915050610e1f565b819250505090565b606080600080600c54604051908082528060200260200182016040528015610e805781602001602082028038833980820191505090505b50925060009150600190505b600c5481111515610edf57600b6000828152602001908152602001600020600101548383815181101515610ebc57fe5b906020019060200201818152505081806001019250508080600101915050610e8c565b82935050505090565b60086020528060005260406000206000915090508060000160009054906101000a900473ffffffffffffffffffffffffffffffffffffffff1690806001015490806002018054600181600116156101000203166002900480601f016020809104026020016040519081016040528092919081815260200182805460018160011615610100020316600290048015610fc05780601f10610f9557610100808354040283529160200191610fc0565b820191906000526020600020905b815481529060010190602001808311610fa357829003601f168201915b505050505090806003018054600181600116156101000203166002900480601f01602080910402602001604051908101604052809291908181526020018280546001816001161561010002031660029004801561105e5780601f106110335761010080835404028352916020019161105e565b820191906000526020600020905b81548152906001019060200180831161104157829003601f168201915b505050505090806004018054600181600116156101000203166002900480601f0160208091040260200160405190810160405280929190818152602001828054600181600116156101000203166002900480156110fc5780601f106110d1576101008083540402835291602001916110fc565b820191906000526020600020905b8154815290600101906020018083116110df57829003601f168201915b5050505050905085565b600c5481565b3373ffffffffffffffffffffffffffffffffffffffff16600860003373ffffffffffffffffffffffffffffffffffffffff1673ffffffffffffffffffffffffffffffffffffffff16815260200190815260200160002060000160009054906101000a900473ffffffffffffffffffffffffffffffffffffffff1673ffffffffffffffffffffffffffffffffffffffff16141515611211576040517f08c379a000000000000000000000000000000000000000000000000000000000815260040180806020018281038252601c8152602001807f7573657220646f6573206e6f74206f776e20616e79206173736574730000000081525060200191505060405180910390fd5b600660078281548110151561122257fe5b9060005260206000209060050201908060018154018082558091505090600182039060005260206000209060050201600090919290919091506000820160009054906101000a900473ffffffffffffffffffffffffffffffffffffffff168160000160006101000a81548173ffffffffffffffffffffffffffffffffffffffff021916908373ffffffffffffffffffffffffffffffffffffffff16021790555060018201548160010155600282018160020190805460018160011615610100020316600290046112f392919061259e565b506003820181600301908054600181600116156101000203166002900461131b92919061259e565b506004820181600401908054600181600116156101000203166002900461134392919061259e565b505050506001600780549050111561148457600760016007805490500381548110151561136c57fe5b906000526020600020906005020160078281548110151561138957fe5b90600052602060002090600502016000820160009054906101000a900473ffffffffffffffffffffffffffffffffffffffff168160000160006101000a81548173ffffffffffffffffffffffffffffffffffffffff021916908373ffffffffffffffffffffffffffffffffffffffff160217905550600182015481600101556002820181600201908054600181600116156101000203166002900461142f92919061259e565b506003820181600301908054600181600116156101000203166002900461145792919061259e565b506004820181600401908054600181600116156101000203166002900461147f92919061259e565b509050505b60078054809190600190036114999190612625565b50807f5bd81a4d257100f5fe7df72a9e528a7aaf33871f8258739a331d2627a83f0aac33604051808273ffffffffffffffffffffffffffffffffffffffff1673ffffffffffffffffffffffffffffffffffffffff16815260200191505060405180910390a250565b600080600080600580549050111515611582576040517f08c379a00000000000000000000000000000000000000000000000000000000081526004018080602001828103825260148152602001807f6e6f20617373657473207265676973746572656400000000000000000000000081525060200191505060405180910390fd5b60009150600090505b6005805490508110156115ad578180600101925050808060010191505061158b565b819250505090565b600080600080600680549050111515611636576040517f08c379a00000000000000000000000000000000000000000000000000000000081526004018080602001828103825260128152602001807f6e6f20617373657473207665726966696564000000000000000000000000000081525060200191505060405180910390fd5b60009150600090505b600680549050811015611661578180600101925050808060010191505061163f565b819250505090565b600a6020528060005260406000206000915054906101000a900460ff1681565b60078181548110151561169857fe5b90600052602060002090600502016000915090508060000160009054906101000a900473ffffffffffffffffffffffffffffffffffffffff1690806001015490806002018054600181600116156101000203166002900480601f0160208091040260200160405190810160405280929190818152602001828054600181600116156101000203166002900480156117705780601f1061174557610100808354040283529160200191611770565b820191906000526020600020905b81548152906001019060200180831161175357829003601f168201915b505050505090806003018054600181600116156101000203166002900480601f01602080910402602001604051908101604052809291908181526020018280546001816001161561010002031660029004801561180e5780601f106117e35761010080835404028352916020019161180e565b820191906000526020600020905b8154815290600101906020018083116117f157829003601f168201915b505050505090806004018054600181600116156101000203166002900480601f0160208091040260200160405190810160405280929190818152602001828054600181600116156101000203166002900480156118ac5780601f10611881576101008083540402835291602001916118ac565b820191906000526020600020905b81548152906001019060200180831161188f57829003601f168201915b5050505050905085565b6004818154811015156118c557fe5b906000526020600020016000915054906101000a900473ffffffffffffffffffffffffffffffffffffffff1681565b60096020528060005260406000206000915054906101000a900473ffffffffffffffffffffffffffffffffffffffff1681565b60028181548110151561193657fe5b906000526020600020016000915054906101000a900473ffffffffffffffffffffffffffffffffffffffff1681565b600b6020528060005260406000206000915090508060000160009054906101000a900473ffffffffffffffffffffffffffffffffffffffff1690806001015490806002018054600181600116156101000203166002900480601f016020809104026020016040519081016040528092919081815260200182805460018160011615610100020316600290048015611a3d5780601f10611a1257610100808354040283529160200191611a3d565b820191906000526020600020905b815481529060010190602001808311611a2057829003601f168201915b505050505090806003018054600181600116156101000203166002900480601f016020809104026020016040519081016040528092919081815260200182805460018160011615610100020316600290048015611adb5780601f10611ab057610100808354040283529160200191611adb565b820191906000526020600020905b815481529060010190602001808311611abe57829003601f168201915b505050505090806004018054600181600116156101000203166002900480601f016020809104026020016040519081016040528092919081815260200182805460018160011615610100020316600290048015611b795780601f10611b4e57610100808354040283529160200191611b79565b820191906000526020600020905b815481529060010190602001808311611b5c57829003601f168201915b5050505050905085565b611b8b612657565b600c6000815480929190600101919050555060a0604051908101604052808673ffffffffffffffffffffffffffffffffffffffff168152602001600c5481526020018581526020018481526020018381525090506005819080600181540180825580915050906001820390600052602060002090600502016000909192909190915060008201518160000160006101000a81548173ffffffffffffffffffffffffffffffffffffffff021916908373ffffffffffffffffffffffffffffffffffffffff160217905550602082015181600101556040820151816002019080519060200190611c7a92919061269d565b506060820151816003019080519060200190611c9792919061269d565b506080820151816004019080519060200190611cb492919061269d565b505050506007819080600181540180825580915050906001820390600052602060002090600502016000909192909190915060008201518160000160006101000a81548173ffffffffffffffffffffffffffffffffffffffff021916908373ffffffffffffffffffffffffffffffffffffffff160217905550602082015181600101556040820151816002019080519060200190611d5392919061269d565b506060820151816003019080519060200190611d7092919061269d565b506080820151816004019080519060200190611d8d92919061269d565b505050508460096000600c54815260200190815260200160002060006101000a81548173ffffffffffffffffffffffffffffffffffffffff021916908373ffffffffffffffffffffffffffffffffffffffff16021790555080600860008773ffffffffffffffffffffffffffffffffffffffff1673ffffffffffffffffffffffffffffffffffffffff16815260200190815260200160002060008201518160000160006101000a81548173ffffffffffffffffffffffffffffffffffffffff021916908373ffffffffffffffffffffffffffffffffffffffff160217905550602082015181600101556040820151816002019080519060200190611e9292919061269d565b506060820151816003019080519060200190611eaf92919061269d565b506080820151816004019080519060200190611ecc92919061269d565b509050506001600a60008773ffffffffffffffffffffffffffffffffffffffff1673ffffffffffffffffffffffffffffffffffffffff16815260200190815260200160002060006101000a81548160ff02191690831515021790555080600b6000600c54815260200190815260200160002060008201518160000160006101000a81548173ffffffffffffffffffffffffffffffffffffffff021916908373ffffffffffffffffffffffffffffffffffffffff160217905550602082015181600101556040820151816002019080519060200190611fab92919061269d565b506060820151816003019080519060200190611fc892919061269d565b506080820151816004019080519060200190611fe592919061269d565b509050508473ffffffffffffffffffffffffffffffffffffffff167f4d8a57afa1b1f737f79b2ba20b2c61815f8b50e980d93f9565861c11b539b95f338685604051808473ffffffffffffffffffffffffffffffffffffffff1673ffffffffffffffffffffffffffffffffffffffff1681526020018060200180602001838103835285818151815260200191508051906020019080838360005b8381101561209a57808201518184015260208101905061207f565b50505050905090810190601f1680156120c75780820380516001836020036101000a031916815260200191505b50838103825284818151815260200191508051906020019080838360005b838110156121005780820151818401526020810190506120e5565b50505050905090810190601f16801561212d5780820380516001836020036101000a031916815260200191505b509550505050505060405180910390a25050505050565b60058181548110151561215357fe5b90600052602060002090600502016000915090508060000160009054906101000a900473ffffffffffffffffffffffffffffffffffffffff1690806001015490806002018054600181600116156101000203166002900480601f01602080910402602001604051908101604052809291908181526020018280546001816001161561010002031660029004801561222b5780601f106122005761010080835404028352916020019161222b565b820191906000526020600020905b81548152906001019060200180831161220e57829003601f168201915b505050505090806003018054600181600116156101000203166002900480601f0160208091040260200160405190810160405280929190818152602001828054600181600116156101000203166002900480156122c95780601f1061229e576101008083540402835291602001916122c9565b820191906000526020600020905b8154815290600101906020018083116122ac57829003601f168201915b505050505090806004018054600181600116156101000203166002900480601f0160208091040260200160405190810160405280929190818152602001828054600181600116156101000203166002900480156123675780601f1061233c57610100808354040283529160200191612367565b820191906000526020600020905b81548152906001019060200180831161234a57829003601f168201915b5050505050905085565b60068181548110151561238057fe5b90600052602060002090600502016000915090508060000160009054906101000a900473ffffffffffffffffffffffffffffffffffffffff1690806001015490806002018054600181600116156101000203166002900480601f0160208091040260200160405190810160405280929190818152602001828054600181600116156101000203166002900480156124585780601f1061242d57610100808354040283529160200191612458565b820191906000526020600020905b81548152906001019060200180831161243b57829003601f168201915b505050505090806003018054600181600116156101000203166002900480601f0160208091040260200160405190810160405280929190818152602001828054600181600116156101000203166002900480156124f65780601f106124cb576101008083540402835291602001916124f6565b820191906000526020600020905b8154815290600101906020018083116124d957829003601f168201915b505050505090806004018054600181600116156101000203166002900480601f0160208091040260200160405190810160405280929190818152602001828054600181600116156101000203166002900480156125945780601f1061256957610100808354040283529160200191612594565b820191906000526020600020905b81548152906001019060200180831161257757829003601f168201915b5050505050905085565b828054600181600116156101000203166002900490600052602060002090601f016020900481019282601f106125d75780548555612614565b8280016001018555821561261457600052602060002091601f016020900482015b828111156126135782548255916001019190600101906125f8565b5b509050612621919061271d565b5090565b815481835581811115612652576005028160050283600052602060002091820191016126519190612742565b5b505050565b60a060405190810160405280600073ffffffffffffffffffffffffffffffffffffffff168152602001600081526020016060815260200160608152602001606081525090565b828054600181600116156101000203166002900490600052602060002090601f016020900481019282601f106126de57805160ff191683800117855561270c565b8280016001018555821561270c579182015b8281111561270b5782518255916020019190600101906126f0565b5b509050612719919061271d565b5090565b61273f91905b8082111561273b576000816000905550600101612723565b5090565b90565b6127bd91905b808211156127b957600080820160006101000a81549073ffffffffffffffffffffffffffffffffffffffff0219169055600182016000905560028201600061279091906127c0565b6003820160006127a091906127c0565b6004820160006127b091906127c0565b50600501612748565b5090565b90565b50805460018160011615610100020316600290046000825580601f106127e65750612805565b601f016020900490600052602060002090810190612804919061271d565b5b505600a165627a7a7230582035c097bf176213566e5bf8b12e1cbfe5e9785f0ea82e1a66790901a77624552a0029",
  "source": "pragma solidity ^0.4.23;\n\ncontract AssetRegistree {\n  \n\n    // Owner of the asset \n    address owner;        \n    \n    // Person who verifies the asset\n    address verifier;\n    address[] public verifiers;\n\n    // Fund users\n    address grantor;\n    address[] public grantors;\n    \n    // Asset Description\n    struct Asset {\n      address asset_owner;\n      uint assetID;\n      string name;   // name of asset\n      string description; // asset description\n      string date_of_acquisition; // when the asset was bought\n    }\n    // array of assets\n    Asset[] public assets;\n    Asset[] public verifiedAssets;\n    Asset[] public unverifiedAssets;\n    \n\n    // Assign owner to asset \n    mapping(address => Asset) public ownerAddressToAsset;\n    // Assign assetCounter to owner\n    mapping (uint => address) public idToOwnerAddress;\n    //check if asset exists for a specific owner\n    mapping (address => bool) public assetCheck;\n    // assetID to Asset\n    mapping(uint => Asset) public idToAsset;\n\n    \n    // Assign contract to the onwer of the asset\n    constructor() public {\n        //creator of the asset\n        owner = msg.sender;\n    }\n    \n    // Permissions\n     modifier onlyOwner() {\n         require(msg.sender == owner, \"Only the owner of the asset can perform this function\");\n         _;\n    }\n\n    //track the number of assets\n    uint public assetCounter = 0;\n\n    //register Asset event\n\n    event AssetRegistered(address indexed _asset_owner, address _registerar, \n                          string _name, string _date_of_acquisition);\n\n    // Anyone can register Asset\n    function registerAsset(\n      address _asset_owner,\n      string _name,\n      string _description,\n      string _date_of_acquisition) public {\n       //incrememnt assetCounter\n      assetCounter++;\n      //fill asset with information\n\n      Asset memory thisAsset = Asset(\n        _asset_owner, \n        assetCounter,\n        _name, \n        _description, \n        _date_of_acquisition);\n      //uint assetID = assets.push(Asset(owner, _name, _description, _date_of_acquisition,false));\n      // Push asset to all assets\n      assets.push(thisAsset);\n      // Push asset to unverified list\n      unverifiedAssets.push(thisAsset);\n      // Map the assetID to the owner\n      idToOwnerAddress[assetCounter] = _asset_owner;\n      // Map owner address to asset\n      ownerAddressToAsset[_asset_owner] = thisAsset;\n      // specific address owns an asset\n      assetCheck[_asset_owner] = true;\n      //ID to asset\n      idToAsset[assetCounter] = thisAsset;\n      //omit and show asset has been registererd\n      emit AssetRegistered(_asset_owner, msg.sender, _name, _date_of_acquisition);\n   \n    }\n\n    //get number of assets registered in the whole platform\n    function getAssetsRegistered() external view returns(uint) {\n        //require there to be songs\n        require(assets.length > 0 , \"no assets registered\");\n        //get number of songs registered\n        \n        //create a counter\n        uint counter = 0;\n        // for each asset in the asset array\n        for (uint i = 0; i < assets.length; i++){\n            //increment the counter\n            counter++;\n        }\n        //return the total count\n        return counter;\n    }\n    \n    //get number of assets registered in the whole platform\n    function getUnverifiedAssets() external view returns(uint) {\n        //require there to be songs\n        require(unverifiedAssets.length  > 0, \"no assets unverified\");\n        //get number of songs registered\n        \n        //create a counter\n        uint counter = 0;\n        // for each asset in the asset array\n        for (uint i = 0; i < unverifiedAssets.length; i++){\n            //increment the counter\n            counter++;\n        }\n        //return the total count\n        return counter;\n    }\n    \n    //event to verify asset\n    event AssetVerified(uint indexed _assetID, address _owner);\n     \n    // Verify Asset by Third Party\n     function verifyAsset(uint _assetID) public {\n        require(ownerAddressToAsset[msg.sender].asset_owner == msg.sender, \"user does not own any assets\");\n        //return the specific asset\n         verifiedAssets.push(unverifiedAssets[_assetID]);\n         //uint index = unverifiedAssets[_assetID];\n         if (unverifiedAssets.length > 1) {\n         unverifiedAssets[_assetID] = unverifiedAssets[unverifiedAssets.length-1];\n         }\n         unverifiedAssets.length--; // Implicitly recovers gas from last element storage\n        emit AssetVerified(_assetID, msg.sender);\n     }\n     \n     //get number of assets registered in the whole platform\n    function getVerifiedAssets() external view returns(uint) {\n        //require there to be songs\n        require(verifiedAssets.length > 0, \"no assets verified\");\n        \n        //create a counter\n        uint counter = 0;\n        // for each asset in the asset array\n        for (uint i = 0; i < verifiedAssets.length; i++){\n            //increment the counter\n            counter++;\n        }\n        //return the total count\n        return counter;\n    }\n    \n     function getAllAssets() public view returns (uint[]) {\n       // prepare output array\n       uint[] memory assetIds = new uint[](assetCounter);\n\n       uint numberOfAssets = 0;\n       // iterate over articles\n       for(uint i = 1; i <= assetCounter;  i++) {\n\n         assetIds[numberOfAssets] = idToAsset[i].assetID;\n         numberOfAssets++;\n       }\n       return assetIds;\n     }\n\n\n     // Find Farmer by ID\n    //  function findAssetById(uint _assetID) public returns(address){\n    //   return idToOwnerAddress[_assetID];\n    //  }\n    \n    // // Use asset as collatoral\n    // function useAsset() public{\n      \n    // }\n    \n    // // Use asset as collatoral\n    // function useAsset() public{\n\n    // }\n    \n    // // Owner of asset verify collateral \n    // function verifyCollateral() public{\n\n    // }\n    \n    // // Release collateral from contract\n    // function releaseCollateral() public{\n\n    // }\n    \n    // // Remove collateral \n    // function removeCollateral() public{\n\n    // }\n    \n\n}\n",
  "sourcePath": "/Users/kungelamzuku/Desktop/AgriRegistree/contracts/AssetRegistree.sol",
  "compiler": {
    "name": "solc",
    "version": "0.4.24+commit.e67f0147.Emscripten.clang"
  },
  "schemaVersion": "2.0.1",
  "updatedAt": "2018-12-22T16:38:52.657Z"
}