{
  "contractName": "AssetRegistree",
  "abi": [
    {
      "constant": true,
      "inputs": [
        {
          "name": "",
          "type": "address"
        }
      ],
      "name": "ownerAddressToAsset",
      "outputs": [
        {
          "name": "asset_owner",
          "type": "address"
        },
        {
          "name": "assetID",
          "type": "uint256"
        },
        {
          "name": "name",
          "type": "string"
        },
        {
          "name": "description",
          "type": "string"
        },
        {
          "name": "date_of_acquisition",
          "type": "string"
        }
      ],
      "payable": false,
      "stateMutability": "view",
      "type": "function"
    },
    {
      "constant": true,
      "inputs": [],
      "name": "assetCounter",
      "outputs": [
        {
          "name": "",
          "type": "uint256"
        }
      ],
      "payable": false,
      "stateMutability": "view",
      "type": "function"
    },
    {
      "constant": true,
      "inputs": [
        {
          "name": "",
          "type": "address"
        }
      ],
      "name": "assetCheck",
      "outputs": [
        {
          "name": "",
          "type": "bool"
        }
      ],
      "payable": false,
      "stateMutability": "view",
      "type": "function"
    },
    {
      "constant": true,
      "inputs": [
        {
          "name": "",
          "type": "uint256"
        }
      ],
      "name": "assetVerifiedCheck",
      "outputs": [
        {
          "name": "",
          "type": "bool"
        }
      ],
      "payable": false,
      "stateMutability": "view",
      "type": "function"
    },
    {
      "constant": true,
      "inputs": [
        {
          "name": "",
          "type": "uint256"
        }
      ],
      "name": "unverifiedAssets",
      "outputs": [
        {
          "name": "asset_owner",
          "type": "address"
        },
        {
          "name": "assetID",
          "type": "uint256"
        },
        {
          "name": "name",
          "type": "string"
        },
        {
          "name": "description",
          "type": "string"
        },
        {
          "name": "date_of_acquisition",
          "type": "string"
        }
      ],
      "payable": false,
      "stateMutability": "view",
      "type": "function"
    },
    {
      "constant": true,
      "inputs": [
        {
          "name": "",
          "type": "uint256"
        }
      ],
      "name": "grantors",
      "outputs": [
        {
          "name": "",
          "type": "address"
        }
      ],
      "payable": false,
      "stateMutability": "view",
      "type": "function"
    },
    {
      "constant": true,
      "inputs": [
        {
          "name": "",
          "type": "uint256"
        }
      ],
      "name": "idToOwnerAddress",
      "outputs": [
        {
          "name": "",
          "type": "address"
        }
      ],
      "payable": false,
      "stateMutability": "view",
      "type": "function"
    },
    {
      "constant": true,
      "inputs": [
        {
          "name": "",
          "type": "uint256"
        }
      ],
      "name": "verifiers",
      "outputs": [
        {
          "name": "",
          "type": "address"
        }
      ],
      "payable": false,
      "stateMutability": "view",
      "type": "function"
    },
    {
      "constant": true,
      "inputs": [
        {
          "name": "",
          "type": "uint256"
        }
      ],
      "name": "idToAsset",
      "outputs": [
        {
          "name": "asset_owner",
          "type": "address"
        },
        {
          "name": "assetID",
          "type": "uint256"
        },
        {
          "name": "name",
          "type": "string"
        },
        {
          "name": "description",
          "type": "string"
        },
        {
          "name": "date_of_acquisition",
          "type": "string"
        }
      ],
      "payable": false,
      "stateMutability": "view",
      "type": "function"
    },
    {
      "constant": true,
      "inputs": [
        {
          "name": "",
          "type": "uint256"
        }
      ],
      "name": "assets",
      "outputs": [
        {
          "name": "asset_owner",
          "type": "address"
        },
        {
          "name": "assetID",
          "type": "uint256"
        },
        {
          "name": "name",
          "type": "string"
        },
        {
          "name": "description",
          "type": "string"
        },
        {
          "name": "date_of_acquisition",
          "type": "string"
        }
      ],
      "payable": false,
      "stateMutability": "view",
      "type": "function"
    },
    {
      "constant": true,
      "inputs": [
        {
          "name": "",
          "type": "uint256"
        }
      ],
      "name": "verifiedAssets",
      "outputs": [
        {
          "name": "asset_owner",
          "type": "address"
        },
        {
          "name": "assetID",
          "type": "uint256"
        },
        {
          "name": "name",
          "type": "string"
        },
        {
          "name": "description",
          "type": "string"
        },
        {
          "name": "date_of_acquisition",
          "type": "string"
        }
      ],
      "payable": false,
      "stateMutability": "view",
      "type": "function"
    },
    {
      "inputs": [],
      "payable": false,
      "stateMutability": "nonpayable",
      "type": "constructor"
    },
    {
      "anonymous": false,
      "inputs": [
        {
          "indexed": true,
          "name": "_asset_owner",
          "type": "address"
        },
        {
          "indexed": false,
          "name": "_registerar",
          "type": "address"
        },
        {
          "indexed": false,
          "name": "_name",
          "type": "string"
        },
        {
          "indexed": false,
          "name": "_date_of_acquisition",
          "type": "string"
        }
      ],
      "name": "AssetRegistered",
      "type": "event"
    },
    {
      "anonymous": false,
      "inputs": [
        {
          "indexed": true,
          "name": "_assetID",
          "type": "uint256"
        },
        {
          "indexed": false,
          "name": "_owner",
          "type": "address"
        }
      ],
      "name": "AssetVerified",
      "type": "event"
    },
    {
      "constant": false,
      "inputs": [
        {
          "name": "_asset_owner",
          "type": "address"
        },
        {
          "name": "_name",
          "type": "string"
        },
        {
          "name": "_description",
          "type": "string"
        },
        {
          "name": "_date_of_acquisition",
          "type": "string"
        }
      ],
      "name": "registerAsset",
      "outputs": [],
      "payable": false,
      "stateMutability": "nonpayable",
      "type": "function"
    },
    {
      "constant": true,
      "inputs": [],
      "name": "getAssetsRegistered",
      "outputs": [
        {
          "name": "",
          "type": "uint256"
        }
      ],
      "payable": false,
      "stateMutability": "view",
      "type": "function"
    },
    {
      "constant": true,
      "inputs": [],
      "name": "getUnverifiedAssets",
      "outputs": [
        {
          "name": "",
          "type": "uint256"
        }
      ],
      "payable": false,
      "stateMutability": "view",
      "type": "function"
    },
    {
      "constant": false,
      "inputs": [
        {
          "name": "_assetID",
          "type": "uint256"
        }
      ],
      "name": "verifyAsset",
      "outputs": [],
      "payable": false,
      "stateMutability": "nonpayable",
      "type": "function"
    },
    {
      "constant": true,
      "inputs": [],
      "name": "getVerifiedAssets",
      "outputs": [
        {
          "name": "",
          "type": "uint256"
        }
      ],
      "payable": false,
      "stateMutability": "view",
      "type": "function"
    },
    {
      "constant": true,
      "inputs": [],
      "name": "getAllAssets",
      "outputs": [
        {
          "name": "",
          "type": "uint256[]"
        }
      ],
      "payable": false,
      "stateMutability": "view",
      "type": "function"
    }
  ],
  "bytecode": "0x60806040526000600d5534801561001557600080fd5b50336000806101000a81548173ffffffffffffffffffffffffffffffffffffffff021916908373ffffffffffffffffffffffffffffffffffffffff160217905550612901806100656000396000f3006080604052600436106100f1576000357c0100000000000000000000000000000000000000000000000000000000900463ffffffff1680630efe0100146100f65780632acada4d146101215780632df6a3c71461018d5780634b9187861461035b57806359fd285c14610386578063629f6e6f146103b35780636859e3fd146103de578063897b6744146104095780638f963d7414610464578063a3ac0856146104a9578063a3d591f414610661578063ab649b0a146106ce578063ac1eff681461073b578063c688fca7146107a8578063cb72f9f814610960578063cf35bdd014610a75578063e8a60e7014610c2d575b600080fd5b34801561010257600080fd5b5061010b610de5565b6040518082815260200191505060405180910390f35b34801561012d57600080fd5b50610136610e99565b6040518080602001828103825283818151815260200191508051906020019060200280838360005b8381101561017957808201518184015260208101905061015e565b505050509050019250505060405180910390f35b34801561019957600080fd5b506101ce600480360381019080803573ffffffffffffffffffffffffffffffffffffffff169060200190929190505050610f38565b604051808673ffffffffffffffffffffffffffffffffffffffff1673ffffffffffffffffffffffffffffffffffffffff168152602001858152602001806020018060200180602001848103845287818151815260200191508051906020019080838360005b8381101561024e578082015181840152602081019050610233565b50505050905090810190601f16801561027b5780820380516001836020036101000a031916815260200191505b50848103835286818151815260200191508051906020019080838360005b838110156102b4578082015181840152602081019050610299565b50505050905090810190601f1680156102e15780820380516001836020036101000a031916815260200191505b50848103825285818151815260200191508051906020019080838360005b8381101561031a5780820151818401526020810190506102ff565b50505050905090810190601f1680156103475780820380516001836020036101000a031916815260200191505b509850505050505050505060405180910390f35b34801561036757600080fd5b50610370611156565b6040518082815260200191505060405180910390f35b34801561039257600080fd5b506103b16004803603810190808035906020019092919050505061115c565b005b3480156103bf57600080fd5b506103c8611580565b6040518082815260200191505060405180910390f35b3480156103ea57600080fd5b506103f3611634565b6040518082815260200191505060405180910390f35b34801561041557600080fd5b5061044a600480360381019080803573ffffffffffffffffffffffffffffffffffffffff1690602001909291905050506116e8565b604051808215151515815260200191505060405180910390f35b34801561047057600080fd5b5061048f60048036038101908080359060200190929190505050611708565b604051808215151515815260200191505060405180910390f35b3480156104b557600080fd5b506104d460048036038101908080359060200190929190505050611728565b604051808673ffffffffffffffffffffffffffffffffffffffff1673ffffffffffffffffffffffffffffffffffffffff168152602001858152602001806020018060200180602001848103845287818151815260200191508051906020019080838360005b83811015610554578082015181840152602081019050610539565b50505050905090810190601f1680156105815780820380516001836020036101000a031916815260200191505b50848103835286818151815260200191508051906020019080838360005b838110156105ba57808201518184015260208101905061059f565b50505050905090810190601f1680156105e75780820380516001836020036101000a031916815260200191505b50848103825285818151815260200191508051906020019080838360005b83811015610620578082015181840152602081019050610605565b50505050905090810190601f16801561064d5780820380516001836020036101000a031916815260200191505b509850505050505050505060405180910390f35b34801561066d57600080fd5b5061068c60048036038101908080359060200190929190505050611955565b604051808273ffffffffffffffffffffffffffffffffffffffff1673ffffffffffffffffffffffffffffffffffffffff16815260200191505060405180910390f35b3480156106da57600080fd5b506106f960048036038101908080359060200190929190505050611993565b604051808273ffffffffffffffffffffffffffffffffffffffff1673ffffffffffffffffffffffffffffffffffffffff16815260200191505060405180910390f35b34801561074757600080fd5b50610766600480360381019080803590602001909291905050506119c6565b604051808273ffffffffffffffffffffffffffffffffffffffff1673ffffffffffffffffffffffffffffffffffffffff16815260200191505060405180910390f35b3480156107b457600080fd5b506107d360048036038101908080359060200190929190505050611a04565b604051808673ffffffffffffffffffffffffffffffffffffffff1673ffffffffffffffffffffffffffffffffffffffff168152602001858152602001806020018060200180602001848103845287818151815260200191508051906020019080838360005b83811015610853578082015181840152602081019050610838565b50505050905090810190601f1680156108805780820380516001836020036101000a031916815260200191505b50848103835286818151815260200191508051906020019080838360005b838110156108b957808201518184015260208101905061089e565b50505050905090810190601f1680156108e65780820380516001836020036101000a031916815260200191505b50848103825285818151815260200191508051906020019080838360005b8381101561091f578082015181840152602081019050610904565b50505050905090810190601f16801561094c5780820380516001836020036101000a031916815260200191505b509850505050505050505060405180910390f35b34801561096c57600080fd5b50610a73600480360381019080803573ffffffffffffffffffffffffffffffffffffffff169060200190929190803590602001908201803590602001908080601f0160208091040260200160405190810160405280939291908181526020018383808284378201915050505050509192919290803590602001908201803590602001908080601f0160208091040260200160405190810160405280939291908181526020018383808284378201915050505050509192919290803590602001908201803590602001908080601f0160208091040260200160405190810160405280939291908181526020018383808284378201915050505050509192919290505050611c22565b005b348015610a8157600080fd5b50610aa060048036038101908080359060200190929190505050612211565b604051808673ffffffffffffffffffffffffffffffffffffffff1673ffffffffffffffffffffffffffffffffffffffff168152602001858152602001806020018060200180602001848103845287818151815260200191508051906020019080838360005b83811015610b20578082015181840152602081019050610b05565b50505050905090810190601f168015610b4d5780820380516001836020036101000a031916815260200191505b50848103835286818151815260200191508051906020019080838360005b83811015610b86578082015181840152602081019050610b6b565b50505050905090810190601f168015610bb35780820380516001836020036101000a031916815260200191505b50848103825285818151815260200191508051906020019080838360005b83811015610bec578082015181840152602081019050610bd1565b50505050905090810190601f168015610c195780820380516001836020036101000a031916815260200191505b509850505050505050505060405180910390f35b348015610c3957600080fd5b50610c586004803603810190808035906020019092919050505061243e565b604051808673ffffffffffffffffffffffffffffffffffffffff1673ffffffffffffffffffffffffffffffffffffffff168152602001858152602001806020018060200180602001848103845287818151815260200191508051906020019080838360005b83811015610cd8578082015181840152602081019050610cbd565b50505050905090810190601f168015610d055780820380516001836020036101000a031916815260200191505b50848103835286818151815260200191508051906020019080838360005b83811015610d3e578082015181840152602081019050610d23565b50505050905090810190601f168015610d6b5780820380516001836020036101000a031916815260200191505b50848103825285818151815260200191508051906020019080838360005b83811015610da4578082015181840152602081019050610d89565b50505050905090810190601f168015610dd15780820380516001836020036101000a031916815260200191505b509850505050505050505060405180910390f35b600080600080600780549050111515610e66576040517f08c379a00000000000000000000000000000000000000000000000000000000081526004018080602001828103825260148152602001807f6e6f2061737365747320756e766572696669656400000000000000000000000081525060200191505060405180910390fd5b60009150600090505b600780549050811015610e915781806001019250508080600101915050610e6f565b819250505090565b606080600080600d54604051908082528060200260200182016040528015610ed05781602001602082028038833980820191505090505b50925060009150600190505b600d5481111515610f2f57600b6000828152602001908152602001600020600101548383815181101515610f0c57fe5b906020019060200201818152505081806001019250508080600101915050610edc565b82935050505090565b60086020528060005260406000206000915090508060000160009054906101000a900473ffffffffffffffffffffffffffffffffffffffff1690806001015490806002018054600181600116156101000203166002900480601f0160208091040260200160405190810160405280929190818152602001828054600181600116156101000203166002900480156110105780601f10610fe557610100808354040283529160200191611010565b820191906000526020600020905b815481529060010190602001808311610ff357829003601f168201915b505050505090806003018054600181600116156101000203166002900480601f0160208091040260200160405190810160405280929190818152602001828054600181600116156101000203166002900480156110ae5780601f10611083576101008083540402835291602001916110ae565b820191906000526020600020905b81548152906001019060200180831161109157829003601f168201915b505050505090806004018054600181600116156101000203166002900480601f01602080910402602001604051908101604052809291908181526020018280546001816001161561010002031660029004801561114c5780601f106111215761010080835404028352916020019161114c565b820191906000526020600020905b81548152906001019060200180831161112f57829003601f168201915b5050505050905085565b600d5481565b3373ffffffffffffffffffffffffffffffffffffffff16600860003373ffffffffffffffffffffffffffffffffffffffff1673ffffffffffffffffffffffffffffffffffffffff16815260200190815260200160002060000160009054906101000a900473ffffffffffffffffffffffffffffffffffffffff1673ffffffffffffffffffffffffffffffffffffffff1614151515611262576040517f08c379a00000000000000000000000000000000000000000000000000000000081526004018080602001828103825260198152602001807f4f776e65722063616e6e6f74207665726966792061737365740000000000000081525060200191505060405180910390fd5b600660078281548110151561127357fe5b9060005260206000209060050201908060018154018082558091505090600182039060005260206000209060050201600090919290919091506000820160009054906101000a900473ffffffffffffffffffffffffffffffffffffffff168160000160006101000a81548173ffffffffffffffffffffffffffffffffffffffff021916908373ffffffffffffffffffffffffffffffffffffffff160217905550600182015481600101556002820181600201908054600181600116156101000203166002900461134492919061266b565b506003820181600301908054600181600116156101000203166002900461136c92919061266b565b506004820181600401908054600181600116156101000203166002900461139492919061266b565b50505050600160078054905011156114d55760076001600780549050038154811015156113bd57fe5b90600052602060002090600502016007828154811015156113da57fe5b90600052602060002090600502016000820160009054906101000a900473ffffffffffffffffffffffffffffffffffffffff168160000160006101000a81548173ffffffffffffffffffffffffffffffffffffffff021916908373ffffffffffffffffffffffffffffffffffffffff160217905550600182015481600101556002820181600201908054600181600116156101000203166002900461148092919061266b565b50600382018160030190805460018160011615610100020316600290046114a892919061266b565b50600482018160040190805460018160011615610100020316600290046114d092919061266b565b509050505b60078054809190600190036114ea91906126f2565b506001600c6000600d54815260200190815260200160002060006101000a81548160ff021916908315150217905550807f5bd81a4d257100f5fe7df72a9e528a7aaf33871f8258739a331d2627a83f0aac33604051808273ffffffffffffffffffffffffffffffffffffffff1673ffffffffffffffffffffffffffffffffffffffff16815260200191505060405180910390a250565b600080600080600580549050111515611601576040517f08c379a00000000000000000000000000000000000000000000000000000000081526004018080602001828103825260148152602001807f6e6f20617373657473207265676973746572656400000000000000000000000081525060200191505060405180910390fd5b60009150600090505b60058054905081101561162c578180600101925050808060010191505061160a565b819250505090565b6000806000806006805490501115156116b5576040517f08c379a00000000000000000000000000000000000000000000000000000000081526004018080602001828103825260128152602001807f6e6f20617373657473207665726966696564000000000000000000000000000081525060200191505060405180910390fd5b60009150600090505b6006805490508110156116e057818060010192505080806001019150506116be565b819250505090565b600a6020528060005260406000206000915054906101000a900460ff1681565b600c6020528060005260406000206000915054906101000a900460ff1681565b60078181548110151561173757fe5b90600052602060002090600502016000915090508060000160009054906101000a900473ffffffffffffffffffffffffffffffffffffffff1690806001015490806002018054600181600116156101000203166002900480601f01602080910402602001604051908101604052809291908181526020018280546001816001161561010002031660029004801561180f5780601f106117e45761010080835404028352916020019161180f565b820191906000526020600020905b8154815290600101906020018083116117f257829003601f168201915b505050505090806003018054600181600116156101000203166002900480601f0160208091040260200160405190810160405280929190818152602001828054600181600116156101000203166002900480156118ad5780601f10611882576101008083540402835291602001916118ad565b820191906000526020600020905b81548152906001019060200180831161189057829003601f168201915b505050505090806004018054600181600116156101000203166002900480601f01602080910402602001604051908101604052809291908181526020018280546001816001161561010002031660029004801561194b5780601f106119205761010080835404028352916020019161194b565b820191906000526020600020905b81548152906001019060200180831161192e57829003601f168201915b5050505050905085565b60048181548110151561196457fe5b906000526020600020016000915054906101000a900473ffffffffffffffffffffffffffffffffffffffff1681565b60096020528060005260406000206000915054906101000a900473ffffffffffffffffffffffffffffffffffffffff1681565b6002818154811015156119d557fe5b906000526020600020016000915054906101000a900473ffffffffffffffffffffffffffffffffffffffff1681565b600b6020528060005260406000206000915090508060000160009054906101000a900473ffffffffffffffffffffffffffffffffffffffff1690806001015490806002018054600181600116156101000203166002900480601f016020809104026020016040519081016040528092919081815260200182805460018160011615610100020316600290048015611adc5780601f10611ab157610100808354040283529160200191611adc565b820191906000526020600020905b815481529060010190602001808311611abf57829003601f168201915b505050505090806003018054600181600116156101000203166002900480601f016020809104026020016040519081016040528092919081815260200182805460018160011615610100020316600290048015611b7a5780601f10611b4f57610100808354040283529160200191611b7a565b820191906000526020600020905b815481529060010190602001808311611b5d57829003601f168201915b505050505090806004018054600181600116156101000203166002900480601f016020809104026020016040519081016040528092919081815260200182805460018160011615610100020316600290048015611c185780601f10611bed57610100808354040283529160200191611c18565b820191906000526020600020905b815481529060010190602001808311611bfb57829003601f168201915b5050505050905085565b611c2a612724565b600d6000815480929190600101919050555060a0604051908101604052808673ffffffffffffffffffffffffffffffffffffffff168152602001600d5481526020018581526020018481526020018381525090506005819080600181540180825580915050906001820390600052602060002090600502016000909192909190915060008201518160000160006101000a81548173ffffffffffffffffffffffffffffffffffffffff021916908373ffffffffffffffffffffffffffffffffffffffff160217905550602082015181600101556040820151816002019080519060200190611d1992919061276a565b506060820151816003019080519060200190611d3692919061276a565b506080820151816004019080519060200190611d5392919061276a565b505050506007819080600181540180825580915050906001820390600052602060002090600502016000909192909190915060008201518160000160006101000a81548173ffffffffffffffffffffffffffffffffffffffff021916908373ffffffffffffffffffffffffffffffffffffffff160217905550602082015181600101556040820151816002019080519060200190611df292919061276a565b506060820151816003019080519060200190611e0f92919061276a565b506080820151816004019080519060200190611e2c92919061276a565b505050508460096000600d54815260200190815260200160002060006101000a81548173ffffffffffffffffffffffffffffffffffffffff021916908373ffffffffffffffffffffffffffffffffffffffff16021790555080600860008773ffffffffffffffffffffffffffffffffffffffff1673ffffffffffffffffffffffffffffffffffffffff16815260200190815260200160002060008201518160000160006101000a81548173ffffffffffffffffffffffffffffffffffffffff021916908373ffffffffffffffffffffffffffffffffffffffff160217905550602082015181600101556040820151816002019080519060200190611f3192919061276a565b506060820151816003019080519060200190611f4e92919061276a565b506080820151816004019080519060200190611f6b92919061276a565b509050506001600a60008773ffffffffffffffffffffffffffffffffffffffff1673ffffffffffffffffffffffffffffffffffffffff16815260200190815260200160002060006101000a81548160ff0219169083151502179055506000600c6000600d54815260200190815260200160002060006101000a81548160ff02191690831515021790555080600b6000600d54815260200190815260200160002060008201518160000160006101000a81548173ffffffffffffffffffffffffffffffffffffffff021916908373ffffffffffffffffffffffffffffffffffffffff16021790555060208201518160010155604082015181600201908051906020019061207892919061276a565b50606082015181600301908051906020019061209592919061276a565b5060808201518160040190805190602001906120b292919061276a565b509050508473ffffffffffffffffffffffffffffffffffffffff167f4d8a57afa1b1f737f79b2ba20b2c61815f8b50e980d93f9565861c11b539b95f338685604051808473ffffffffffffffffffffffffffffffffffffffff1673ffffffffffffffffffffffffffffffffffffffff1681526020018060200180602001838103835285818151815260200191508051906020019080838360005b8381101561216757808201518184015260208101905061214c565b50505050905090810190601f1680156121945780820380516001836020036101000a031916815260200191505b50838103825284818151815260200191508051906020019080838360005b838110156121cd5780820151818401526020810190506121b2565b50505050905090810190601f1680156121fa5780820380516001836020036101000a031916815260200191505b509550505050505060405180910390a25050505050565b60058181548110151561222057fe5b90600052602060002090600502016000915090508060000160009054906101000a900473ffffffffffffffffffffffffffffffffffffffff1690806001015490806002018054600181600116156101000203166002900480601f0160208091040260200160405190810160405280929190818152602001828054600181600116156101000203166002900480156122f85780601f106122cd576101008083540402835291602001916122f8565b820191906000526020600020905b8154815290600101906020018083116122db57829003601f168201915b505050505090806003018054600181600116156101000203166002900480601f0160208091040260200160405190810160405280929190818152602001828054600181600116156101000203166002900480156123965780601f1061236b57610100808354040283529160200191612396565b820191906000526020600020905b81548152906001019060200180831161237957829003601f168201915b505050505090806004018054600181600116156101000203166002900480601f0160208091040260200160405190810160405280929190818152602001828054600181600116156101000203166002900480156124345780601f1061240957610100808354040283529160200191612434565b820191906000526020600020905b81548152906001019060200180831161241757829003601f168201915b5050505050905085565b60068181548110151561244d57fe5b90600052602060002090600502016000915090508060000160009054906101000a900473ffffffffffffffffffffffffffffffffffffffff1690806001015490806002018054600181600116156101000203166002900480601f0160208091040260200160405190810160405280929190818152602001828054600181600116156101000203166002900480156125255780601f106124fa57610100808354040283529160200191612525565b820191906000526020600020905b81548152906001019060200180831161250857829003601f168201915b505050505090806003018054600181600116156101000203166002900480601f0160208091040260200160405190810160405280929190818152602001828054600181600116156101000203166002900480156125c35780601f10612598576101008083540402835291602001916125c3565b820191906000526020600020905b8154815290600101906020018083116125a657829003601f168201915b505050505090806004018054600181600116156101000203166002900480601f0160208091040260200160405190810160405280929190818152602001828054600181600116156101000203166002900480156126615780601f1061263657610100808354040283529160200191612661565b820191906000526020600020905b81548152906001019060200180831161264457829003601f168201915b5050505050905085565b828054600181600116156101000203166002900490600052602060002090601f016020900481019282601f106126a457805485556126e1565b828001600101855582156126e157600052602060002091601f016020900482015b828111156126e05782548255916001019190600101906126c5565b5b5090506126ee91906127ea565b5090565b81548183558181111561271f5760050281600502836000526020600020918201910161271e919061280f565b5b505050565b60a060405190810160405280600073ffffffffffffffffffffffffffffffffffffffff168152602001600081526020016060815260200160608152602001606081525090565b828054600181600116156101000203166002900490600052602060002090601f016020900481019282601f106127ab57805160ff19168380011785556127d9565b828001600101855582156127d9579182015b828111156127d85782518255916020019190600101906127bd565b5b5090506127e691906127ea565b5090565b61280c91905b808211156128085760008160009055506001016127f0565b5090565b90565b61288a91905b8082111561288657600080820160006101000a81549073ffffffffffffffffffffffffffffffffffffffff0219169055600182016000905560028201600061285d919061288d565b60038201600061286d919061288d565b60048201600061287d919061288d565b50600501612815565b5090565b90565b50805460018160011615610100020316600290046000825580601f106128b357506128d2565b601f0160209004906000526020600020908101906128d191906127ea565b5b505600a165627a7a723058209e6ca29153c87da9b462ca29dd6b9a09fa1986497cdb55196b549610605a92330029",
  "source": "pragma solidity ^0.4.23;\n\ncontract AssetRegistree {\n  \n\n    // Owner of the asset \n    address owner;        \n    \n    // Person who verifies the asset\n    address verifier;\n    address[] public verifiers;\n\n    // Fund users\n    address grantor;\n    address[] public grantors;\n    \n    // Asset Description\n    struct Asset {\n      address asset_owner;\n      uint assetID;\n      string name;   // name of asset\n      string description; // asset description\n      string date_of_acquisition; // when the asset was bought\n    }\n    // array of assets\n    Asset[] public assets;\n    Asset[] public verifiedAssets;\n    Asset[] public unverifiedAssets;\n    \n\n    // Assign owner to asset \n    mapping(address => Asset) public ownerAddressToAsset;\n    // Assign assetCounter to owner\n    mapping (uint => address) public idToOwnerAddress;\n    //check if asset exists for a specific owner\n    mapping (address => bool) public assetCheck;\n    // assetID to Asset\n    mapping(uint => Asset) public idToAsset;\n    //check if the asset has been verified or not\n    mapping (uint => bool) public assetVerifiedCheck;\n\n    \n    // Assign contract to the onwer of the asset\n    constructor() public {\n        //creator of the asset\n        owner = msg.sender;\n    }\n    \n    // Permissions\n     modifier onlyOwner() {\n         require(msg.sender == owner, \"Only the owner of the asset can perform this function\");\n         _;\n    }\n\n    //track the number of assets\n    uint public assetCounter = 0;\n\n    //register Asset event\n\n    event AssetRegistered(address indexed _asset_owner, address _registerar, \n                          string _name, string _date_of_acquisition);\n\n    // Anyone can register Asset\n    function registerAsset(\n      address _asset_owner,\n      string _name,\n      string _description,\n      string _date_of_acquisition) public {\n       //incrememnt assetCounter\n      assetCounter++;\n      //fill asset with information\n\n      Asset memory thisAsset = Asset(\n        _asset_owner, \n        assetCounter,\n        _name, \n        _description, \n        _date_of_acquisition);\n      //uint assetID = assets.push(Asset(owner, _name, _description, _date_of_acquisition,false));\n      // Push asset to all assets\n      assets.push(thisAsset);\n      // Push asset to unverified list\n      unverifiedAssets.push(thisAsset);\n      // Map the assetID to the owner\n      idToOwnerAddress[assetCounter] = _asset_owner;\n      // Map owner address to asset\n      ownerAddressToAsset[_asset_owner] = thisAsset;\n      // specific address owns an asset\n      assetCheck[_asset_owner] = true;\n      // specifies that the asset is not verified yet\n      assetVerifiedCheck[assetCounter] = false;\n      //ID to asset\n      idToAsset[assetCounter] = thisAsset;\n      //omit and show asset has been registererd\n      emit AssetRegistered(_asset_owner, msg.sender, _name, _date_of_acquisition);\n   \n    }\n\n    //get number of assets registered in the whole platform\n    function getAssetsRegistered() external view returns(uint) {\n        //require there to be songs\n        require(assets.length > 0 , \"no assets registered\");\n        //get number of songs registered\n        \n        //create a counter\n        uint counter = 0;\n        // for each asset in the asset array\n        for (uint i = 0; i < assets.length; i++){\n            //increment the counter\n            counter++;\n        }\n        //return the total count\n        return counter;\n    }\n    \n    //get number of assets registered in the whole platform\n    function getUnverifiedAssets() external view returns(uint) {\n        //require there to be songs\n        require(unverifiedAssets.length  > 0, \"no assets unverified\");\n        //get number of songs registered\n        \n        //create a counter\n        uint counter = 0;\n        // for each asset in the asset array\n        for (uint i = 0; i < unverifiedAssets.length; i++){\n            //increment the counter\n            counter++;\n        }\n        //return the total count\n        return counter;\n    }\n    \n    //event to verify asset\n    event AssetVerified(uint indexed _assetID, address _owner);\n     \n    // Verify Asset by Third Party\n    function verifyAsset(uint _assetID) public {\n        require(ownerAddressToAsset[msg.sender].asset_owner != msg.sender, \"Owner cannot verify asset\");\n        //return the specific asset\n         verifiedAssets.push(unverifiedAssets[_assetID]);\n         //uint index = unverifiedAssets[_assetID];\n         if (unverifiedAssets.length > 1) {\n         unverifiedAssets[_assetID] = unverifiedAssets[unverifiedAssets.length-1];\n         }\n         unverifiedAssets.length--; // Implicitly recovers gas from last element storage\n        // specifies that the asset is verified \n        assetVerifiedCheck[assetCounter] = true;\n        emit AssetVerified(_assetID, msg.sender);\n     }\n     \n     //get number of assets registered in the whole platform\n    function getVerifiedAssets() external view returns(uint) {\n        //require there to be songs\n        require(verifiedAssets.length > 0, \"no assets verified\");\n        \n        //create a counter\n        uint counter = 0;\n        // for each asset in the asset array\n        for (uint i = 0; i < verifiedAssets.length; i++){\n            //increment the counter\n            counter++;\n        }\n        //return the total count\n        return counter;\n    }\n    \n     function getAllAssets() public view returns (uint[]) {\n       // prepare output array\n       uint[] memory assetIds = new uint[](assetCounter);\n\n       uint numberOfAssets = 0;\n       // iterate over articles\n       for(uint i = 1; i <= assetCounter;  i++) {\n\n         assetIds[numberOfAssets] = idToAsset[i].assetID;\n         numberOfAssets++;\n       }\n       return assetIds;\n     }\n\n\n     // Find Farmer by ID\n    //  function findAssetById(uint _assetID) public returns(address){\n    //   return idToOwnerAddress[_assetID];\n    //  }\n    \n    // // Use asset as collatoral\n    // function useAsset() public{\n      \n    // }\n    \n    // // Use asset as collatoral\n    // function useAsset() public{\n\n    // }\n    \n    // // Owner of asset verify collateral \n    // function verifyCollateral() public{\n\n    // }\n    \n    // // Release collateral from contract\n    // function releaseCollateral() public{\n\n    // }\n    \n    // // Remove collateral \n    // function removeCollateral() public{\n\n    // }\n    \n\n}\n",
  "sourcePath": "/Users/kungelamzuku/Desktop/AgriRegistree/contracts/AssetRegistree.sol",
  "compiler": {
    "name": "solc",
    "version": "0.4.24+commit.e67f0147.Emscripten.clang"
  },
  "schemaVersion": "2.0.1",
  "updatedAt": "2018-12-28T15:49:43.072Z"
}