{
  "contractName": "AssetRegistree",
  "abi": [
    {
      "constant": true,
      "inputs": [
        {
          "name": "",
          "type": "uint256"
        }
      ],
      "name": "collaterals",
      "outputs": [
        {
          "name": "collateralID",
          "type": "uint256"
        },
        {
          "name": "assetID",
          "type": "uint256"
        },
        {
          "name": "asset_owner",
          "type": "address"
        },
        {
          "name": "grantor",
          "type": "address"
        },
        {
          "name": "verifier",
          "type": "address"
        }
      ],
      "payable": false,
      "stateMutability": "view",
      "type": "function"
    },
    {
      "constant": true,
      "inputs": [
        {
          "name": "",
          "type": "address"
        }
      ],
      "name": "verifierToAsset",
      "outputs": [
        {
          "name": "asset_owner",
          "type": "address"
        },
        {
          "name": "assetID",
          "type": "uint256"
        },
        {
          "name": "name",
          "type": "string"
        },
        {
          "name": "description",
          "type": "string"
        },
        {
          "name": "date_of_acquisition",
          "type": "string"
        }
      ],
      "payable": false,
      "stateMutability": "view",
      "type": "function"
    },
    {
      "constant": true,
      "inputs": [
        {
          "name": "",
          "type": "address"
        }
      ],
      "name": "ownerAddressToAsset",
      "outputs": [
        {
          "name": "asset_owner",
          "type": "address"
        },
        {
          "name": "assetID",
          "type": "uint256"
        },
        {
          "name": "name",
          "type": "string"
        },
        {
          "name": "description",
          "type": "string"
        },
        {
          "name": "date_of_acquisition",
          "type": "string"
        }
      ],
      "payable": false,
      "stateMutability": "view",
      "type": "function"
    },
    {
      "constant": true,
      "inputs": [],
      "name": "assetCounter",
      "outputs": [
        {
          "name": "",
          "type": "uint256"
        }
      ],
      "payable": false,
      "stateMutability": "view",
      "type": "function"
    },
    {
      "constant": true,
      "inputs": [
        {
          "name": "",
          "type": "address"
        }
      ],
      "name": "assetCheck",
      "outputs": [
        {
          "name": "",
          "type": "bool"
        }
      ],
      "payable": false,
      "stateMutability": "view",
      "type": "function"
    },
    {
      "constant": true,
      "inputs": [
        {
          "name": "",
          "type": "uint256"
        }
      ],
      "name": "idToCollateral",
      "outputs": [
        {
          "name": "collateralID",
          "type": "uint256"
        },
        {
          "name": "assetID",
          "type": "uint256"
        },
        {
          "name": "asset_owner",
          "type": "address"
        },
        {
          "name": "grantor",
          "type": "address"
        },
        {
          "name": "verifier",
          "type": "address"
        }
      ],
      "payable": false,
      "stateMutability": "view",
      "type": "function"
    },
    {
      "constant": true,
      "inputs": [
        {
          "name": "",
          "type": "uint256"
        }
      ],
      "name": "assetVerifiedCheck",
      "outputs": [
        {
          "name": "",
          "type": "bool"
        }
      ],
      "payable": false,
      "stateMutability": "view",
      "type": "function"
    },
    {
      "constant": true,
      "inputs": [
        {
          "name": "",
          "type": "uint256"
        }
      ],
      "name": "unverifiedAssets",
      "outputs": [
        {
          "name": "asset_owner",
          "type": "address"
        },
        {
          "name": "assetID",
          "type": "uint256"
        },
        {
          "name": "name",
          "type": "string"
        },
        {
          "name": "description",
          "type": "string"
        },
        {
          "name": "date_of_acquisition",
          "type": "string"
        }
      ],
      "payable": false,
      "stateMutability": "view",
      "type": "function"
    },
    {
      "constant": true,
      "inputs": [
        {
          "name": "",
          "type": "uint256"
        }
      ],
      "name": "grantors",
      "outputs": [
        {
          "name": "",
          "type": "address"
        }
      ],
      "payable": false,
      "stateMutability": "view",
      "type": "function"
    },
    {
      "constant": true,
      "inputs": [
        {
          "name": "",
          "type": "uint256"
        }
      ],
      "name": "idToOwnerAddress",
      "outputs": [
        {
          "name": "",
          "type": "address"
        }
      ],
      "payable": false,
      "stateMutability": "view",
      "type": "function"
    },
    {
      "constant": true,
      "inputs": [
        {
          "name": "",
          "type": "uint256"
        }
      ],
      "name": "verifiers",
      "outputs": [
        {
          "name": "",
          "type": "address"
        }
      ],
      "payable": false,
      "stateMutability": "view",
      "type": "function"
    },
    {
      "constant": true,
      "inputs": [],
      "name": "collateralCounter",
      "outputs": [
        {
          "name": "",
          "type": "uint256"
        }
      ],
      "payable": false,
      "stateMutability": "view",
      "type": "function"
    },
    {
      "constant": true,
      "inputs": [
        {
          "name": "",
          "type": "uint256"
        }
      ],
      "name": "idToAsset",
      "outputs": [
        {
          "name": "asset_owner",
          "type": "address"
        },
        {
          "name": "assetID",
          "type": "uint256"
        },
        {
          "name": "name",
          "type": "string"
        },
        {
          "name": "description",
          "type": "string"
        },
        {
          "name": "date_of_acquisition",
          "type": "string"
        }
      ],
      "payable": false,
      "stateMutability": "view",
      "type": "function"
    },
    {
      "constant": true,
      "inputs": [
        {
          "name": "",
          "type": "uint256"
        }
      ],
      "name": "assets",
      "outputs": [
        {
          "name": "asset_owner",
          "type": "address"
        },
        {
          "name": "assetID",
          "type": "uint256"
        },
        {
          "name": "name",
          "type": "string"
        },
        {
          "name": "description",
          "type": "string"
        },
        {
          "name": "date_of_acquisition",
          "type": "string"
        }
      ],
      "payable": false,
      "stateMutability": "view",
      "type": "function"
    },
    {
      "constant": true,
      "inputs": [
        {
          "name": "",
          "type": "uint256"
        }
      ],
      "name": "collateralIDTOwnerAddress",
      "outputs": [
        {
          "name": "",
          "type": "address"
        }
      ],
      "payable": false,
      "stateMutability": "view",
      "type": "function"
    },
    {
      "constant": true,
      "inputs": [
        {
          "name": "",
          "type": "uint256"
        }
      ],
      "name": "verifiedAssets",
      "outputs": [
        {
          "name": "asset_owner",
          "type": "address"
        },
        {
          "name": "assetID",
          "type": "uint256"
        },
        {
          "name": "name",
          "type": "string"
        },
        {
          "name": "description",
          "type": "string"
        },
        {
          "name": "date_of_acquisition",
          "type": "string"
        }
      ],
      "payable": false,
      "stateMutability": "view",
      "type": "function"
    },
    {
      "inputs": [],
      "payable": false,
      "stateMutability": "nonpayable",
      "type": "constructor"
    },
    {
      "anonymous": false,
      "inputs": [
        {
          "indexed": true,
          "name": "_asset_owner",
          "type": "address"
        },
        {
          "indexed": false,
          "name": "_registerar",
          "type": "address"
        },
        {
          "indexed": false,
          "name": "_name",
          "type": "string"
        },
        {
          "indexed": false,
          "name": "_date_of_acquisition",
          "type": "string"
        }
      ],
      "name": "AssetRegistered",
      "type": "event"
    },
    {
      "anonymous": false,
      "inputs": [
        {
          "indexed": true,
          "name": "_assetID",
          "type": "uint256"
        },
        {
          "indexed": false,
          "name": "_owner",
          "type": "address"
        }
      ],
      "name": "AssetVerified",
      "type": "event"
    },
    {
      "anonymous": false,
      "inputs": [
        {
          "indexed": true,
          "name": "_asset_owner",
          "type": "address"
        },
        {
          "indexed": true,
          "name": "_grantor",
          "type": "address"
        }
      ],
      "name": "collateralCreated",
      "type": "event"
    },
    {
      "constant": false,
      "inputs": [
        {
          "name": "_asset_owner",
          "type": "address"
        },
        {
          "name": "_name",
          "type": "string"
        },
        {
          "name": "_description",
          "type": "string"
        },
        {
          "name": "_date_of_acquisition",
          "type": "string"
        }
      ],
      "name": "registerAsset",
      "outputs": [],
      "payable": false,
      "stateMutability": "nonpayable",
      "type": "function"
    },
    {
      "constant": true,
      "inputs": [],
      "name": "getAssetsRegistered",
      "outputs": [
        {
          "name": "",
          "type": "uint256"
        }
      ],
      "payable": false,
      "stateMutability": "view",
      "type": "function"
    },
    {
      "constant": true,
      "inputs": [],
      "name": "getUnverifiedAssets",
      "outputs": [
        {
          "name": "",
          "type": "uint256"
        }
      ],
      "payable": false,
      "stateMutability": "view",
      "type": "function"
    },
    {
      "constant": false,
      "inputs": [
        {
          "name": "_assetID",
          "type": "uint256"
        }
      ],
      "name": "verifyAsset",
      "outputs": [],
      "payable": false,
      "stateMutability": "nonpayable",
      "type": "function"
    },
    {
      "constant": true,
      "inputs": [],
      "name": "getVerifiedAssets",
      "outputs": [
        {
          "name": "",
          "type": "uint256"
        }
      ],
      "payable": false,
      "stateMutability": "view",
      "type": "function"
    },
    {
      "constant": true,
      "inputs": [],
      "name": "getAllAssets",
      "outputs": [
        {
          "name": "",
          "type": "uint256[]"
        }
      ],
      "payable": false,
      "stateMutability": "view",
      "type": "function"
    },
    {
      "constant": false,
      "inputs": [
        {
          "name": "_assetID",
          "type": "uint256"
        },
        {
          "name": "_asset_owner",
          "type": "address"
        },
        {
          "name": "_grantor",
          "type": "address"
        },
        {
          "name": "_verifier",
          "type": "address"
        }
      ],
      "name": "createCollateral",
      "outputs": [],
      "payable": false,
      "stateMutability": "nonpayable",
      "type": "function"
    },
    {
      "constant": false,
      "inputs": [
        {
          "name": "_collateralID",
          "type": "uint256"
        }
      ],
      "name": "removeCollateral",
      "outputs": [],
      "payable": false,
      "stateMutability": "nonpayable",
      "type": "function"
    }
  ],
  "bytecode": "0x60806040526000600e556000600f5534801561001a57600080fd5b50336000806101000a81548173ffffffffffffffffffffffffffffffffffffffff021916908373ffffffffffffffffffffffffffffffffffffffff1602179055506138798061006a6000396000f30060806040526004361061013e576000357c0100000000000000000000000000000000000000000000000000000000900463ffffffff1680630efe01001461014357806324c1173b1461016e578063270c8f131461024f5780632acada4d1461041d5780632df6a3c7146104895780633237c158146106575780634b9187861461068457806359fd285c146106af578063629f6e6f146106dc5780636859e3fd14610707578063897b6744146107325780638c8786d71461078d5780638f963d741461086e578063a3ac0856146108b3578063a3d591f414610a6b578063ab649b0a14610ad8578063ac1eff6814610b45578063c3a9193714610bb2578063c688fca714610bdd578063cb72f9f814610d95578063cf35bdd014610eaa578063cff4cb8614611062578063d66e639d146110cf578063e8a60e701461115c575b600080fd5b34801561014f57600080fd5b50610158611314565b6040518082815260200191505060405180910390f35b34801561017a57600080fd5b50610199600480360381019080803590602001909291905050506113c8565b604051808681526020018581526020018473ffffffffffffffffffffffffffffffffffffffff1673ffffffffffffffffffffffffffffffffffffffff1681526020018373ffffffffffffffffffffffffffffffffffffffff1673ffffffffffffffffffffffffffffffffffffffff1681526020018273ffffffffffffffffffffffffffffffffffffffff1673ffffffffffffffffffffffffffffffffffffffff1681526020019550505050505060405180910390f35b34801561025b57600080fd5b50610290600480360381019080803573ffffffffffffffffffffffffffffffffffffffff16906020019092919050505061146d565b604051808673ffffffffffffffffffffffffffffffffffffffff1673ffffffffffffffffffffffffffffffffffffffff168152602001858152602001806020018060200180602001848103845287818151815260200191508051906020019080838360005b838110156103105780820151818401526020810190506102f5565b50505050905090810190601f16801561033d5780820380516001836020036101000a031916815260200191505b50848103835286818151815260200191508051906020019080838360005b8381101561037657808201518184015260208101905061035b565b50505050905090810190601f1680156103a35780820380516001836020036101000a031916815260200191505b50848103825285818151815260200191508051906020019080838360005b838110156103dc5780820151818401526020810190506103c1565b50505050905090810190601f1680156104095780820380516001836020036101000a031916815260200191505b509850505050505050505060405180910390f35b34801561042957600080fd5b5061043261168b565b6040518080602001828103825283818151815260200191508051906020019060200280838360005b8381101561047557808201518184015260208101905061045a565b505050509050019250505060405180910390f35b34801561049557600080fd5b506104ca600480360381019080803573ffffffffffffffffffffffffffffffffffffffff16906020019092919050505061172a565b604051808673ffffffffffffffffffffffffffffffffffffffff1673ffffffffffffffffffffffffffffffffffffffff168152602001858152602001806020018060200180602001848103845287818151815260200191508051906020019080838360005b8381101561054a57808201518184015260208101905061052f565b50505050905090810190601f1680156105775780820380516001836020036101000a031916815260200191505b50848103835286818151815260200191508051906020019080838360005b838110156105b0578082015181840152602081019050610595565b50505050905090810190601f1680156105dd5780820380516001836020036101000a031916815260200191505b50848103825285818151815260200191508051906020019080838360005b838110156106165780820151818401526020810190506105fb565b50505050905090810190601f1680156106435780820380516001836020036101000a031916815260200191505b509850505050505050505060405180910390f35b34801561066357600080fd5b5061068260048036038101908080359060200190929190505050611948565b005b34801561069057600080fd5b50610699611b05565b6040518082815260200191505060405180910390f35b3480156106bb57600080fd5b506106da60048036038101908080359060200190929190505050611b0b565b005b3480156106e857600080fd5b506106f1611f95565b6040518082815260200191505060405180910390f35b34801561071357600080fd5b5061071c612049565b6040518082815260200191505060405180910390f35b34801561073e57600080fd5b50610773600480360381019080803573ffffffffffffffffffffffffffffffffffffffff1690602001909291905050506120fd565b604051808215151515815260200191505060405180910390f35b34801561079957600080fd5b506107b86004803603810190808035906020019092919050505061211d565b604051808681526020018581526020018473ffffffffffffffffffffffffffffffffffffffff1673ffffffffffffffffffffffffffffffffffffffff1681526020018373ffffffffffffffffffffffffffffffffffffffff1673ffffffffffffffffffffffffffffffffffffffff1681526020018273ffffffffffffffffffffffffffffffffffffffff1673ffffffffffffffffffffffffffffffffffffffff1681526020019550505050505060405180910390f35b34801561087a57600080fd5b50610899600480360381019080803590602001909291905050506121b3565b604051808215151515815260200191505060405180910390f35b3480156108bf57600080fd5b506108de600480360381019080803590602001909291905050506121d3565b604051808673ffffffffffffffffffffffffffffffffffffffff1673ffffffffffffffffffffffffffffffffffffffff168152602001858152602001806020018060200180602001848103845287818151815260200191508051906020019080838360005b8381101561095e578082015181840152602081019050610943565b50505050905090810190601f16801561098b5780820380516001836020036101000a031916815260200191505b50848103835286818151815260200191508051906020019080838360005b838110156109c45780820151818401526020810190506109a9565b50505050905090810190601f1680156109f15780820380516001836020036101000a031916815260200191505b50848103825285818151815260200191508051906020019080838360005b83811015610a2a578082015181840152602081019050610a0f565b50505050905090810190601f168015610a575780820380516001836020036101000a031916815260200191505b509850505050505050505060405180910390f35b348015610a7757600080fd5b50610a9660048036038101908080359060200190929190505050612400565b604051808273ffffffffffffffffffffffffffffffffffffffff1673ffffffffffffffffffffffffffffffffffffffff16815260200191505060405180910390f35b348015610ae457600080fd5b50610b036004803603810190808035906020019092919050505061243e565b604051808273ffffffffffffffffffffffffffffffffffffffff1673ffffffffffffffffffffffffffffffffffffffff16815260200191505060405180910390f35b348015610b5157600080fd5b50610b7060048036038101908080359060200190929190505050612471565b604051808273ffffffffffffffffffffffffffffffffffffffff1673ffffffffffffffffffffffffffffffffffffffff16815260200191505060405180910390f35b348015610bbe57600080fd5b50610bc76124af565b6040518082815260200191505060405180910390f35b348015610be957600080fd5b50610c08600480360381019080803590602001909291905050506124b5565b604051808673ffffffffffffffffffffffffffffffffffffffff1673ffffffffffffffffffffffffffffffffffffffff168152602001858152602001806020018060200180602001848103845287818151815260200191508051906020019080838360005b83811015610c88578082015181840152602081019050610c6d565b50505050905090810190601f168015610cb55780820380516001836020036101000a031916815260200191505b50848103835286818151815260200191508051906020019080838360005b83811015610cee578082015181840152602081019050610cd3565b50505050905090810190601f168015610d1b5780820380516001836020036101000a031916815260200191505b50848103825285818151815260200191508051906020019080838360005b83811015610d54578082015181840152602081019050610d39565b50505050905090810190601f168015610d815780820380516001836020036101000a031916815260200191505b509850505050505050505060405180910390f35b348015610da157600080fd5b50610ea8600480360381019080803573ffffffffffffffffffffffffffffffffffffffff169060200190929190803590602001908201803590602001908080601f0160208091040260200160405190810160405280939291908181526020018383808284378201915050505050509192919290803590602001908201803590602001908080601f0160208091040260200160405190810160405280939291908181526020018383808284378201915050505050509192919290803590602001908201803590602001908080601f01602080910402602001604051908101604052809392919081815260200183838082843782019150505050505091929192905050506126d3565b005b348015610eb657600080fd5b50610ed560048036038101908080359060200190929190505050612cc2565b604051808673ffffffffffffffffffffffffffffffffffffffff1673ffffffffffffffffffffffffffffffffffffffff168152602001858152602001806020018060200180602001848103845287818151815260200191508051906020019080838360005b83811015610f55578082015181840152602081019050610f3a565b50505050905090810190601f168015610f825780820380516001836020036101000a031916815260200191505b50848103835286818151815260200191508051906020019080838360005b83811015610fbb578082015181840152602081019050610fa0565b50505050905090810190601f168015610fe85780820380516001836020036101000a031916815260200191505b50848103825285818151815260200191508051906020019080838360005b83811015611021578082015181840152602081019050611006565b50505050905090810190601f16801561104e5780820380516001836020036101000a031916815260200191505b509850505050505050505060405180910390f35b34801561106e57600080fd5b5061108d60048036038101908080359060200190929190505050612eef565b604051808273ffffffffffffffffffffffffffffffffffffffff1673ffffffffffffffffffffffffffffffffffffffff16815260200191505060405180910390f35b3480156110db57600080fd5b5061115a60048036038101908080359060200190929190803573ffffffffffffffffffffffffffffffffffffffff169060200190929190803573ffffffffffffffffffffffffffffffffffffffff169060200190929190803573ffffffffffffffffffffffffffffffffffffffff169060200190929190505050612f22565b005b34801561116857600080fd5b5061118760048036038101908080359060200190929190505050613344565b604051808673ffffffffffffffffffffffffffffffffffffffff1673ffffffffffffffffffffffffffffffffffffffff168152602001858152602001806020018060200180602001848103845287818151815260200191508051906020019080838360005b838110156112075780820151818401526020810190506111ec565b50505050905090810190601f1680156112345780820380516001836020036101000a031916815260200191505b50848103835286818151815260200191508051906020019080838360005b8381101561126d578082015181840152602081019050611252565b50505050905090810190601f16801561129a5780820380516001836020036101000a031916815260200191505b50848103825285818151815260200191508051906020019080838360005b838110156112d35780820151818401526020810190506112b8565b50505050905090810190601f1680156113005780820380516001836020036101000a031916815260200191505b509850505050505050505060405180910390f35b600080600080600780549050111515611395576040517f08c379a00000000000000000000000000000000000000000000000000000000081526004018080602001828103825260148152602001807f6e6f2061737365747320756e766572696669656400000000000000000000000081525060200191505060405180910390fd5b60009150600090505b6007805490508110156113c0578180600101925050808060010191505061139e565b819250505090565b6010818154811015156113d757fe5b90600052602060002090600502016000915090508060000154908060010154908060020160009054906101000a900473ffffffffffffffffffffffffffffffffffffffff16908060030160009054906101000a900473ffffffffffffffffffffffffffffffffffffffff16908060040160009054906101000a900473ffffffffffffffffffffffffffffffffffffffff16905085565b600d6020528060005260406000206000915090508060000160009054906101000a900473ffffffffffffffffffffffffffffffffffffffff1690806001015490806002018054600181600116156101000203166002900480601f0160208091040260200160405190810160405280929190818152602001828054600181600116156101000203166002900480156115455780601f1061151a57610100808354040283529160200191611545565b820191906000526020600020905b81548152906001019060200180831161152857829003601f168201915b505050505090806003018054600181600116156101000203166002900480601f0160208091040260200160405190810160405280929190818152602001828054600181600116156101000203166002900480156115e35780601f106115b8576101008083540402835291602001916115e3565b820191906000526020600020905b8154815290600101906020018083116115c657829003601f168201915b505050505090806004018054600181600116156101000203166002900480601f0160208091040260200160405190810160405280929190818152602001828054600181600116156101000203166002900480156116815780601f1061165657610100808354040283529160200191611681565b820191906000526020600020905b81548152906001019060200180831161166457829003601f168201915b5050505050905085565b606080600080600e546040519080825280602002602001820160405280156116c25781602001602082028038833980820191505090505b50925060009150600190505b600e548111151561172157600b60008281526020019081526020016000206001015483838151811015156116fe57fe5b9060200190602002018181525050818060010192505080806001019150506116ce565b82935050505090565b60086020528060005260406000206000915090508060000160009054906101000a900473ffffffffffffffffffffffffffffffffffffffff1690806001015490806002018054600181600116156101000203166002900480601f0160208091040260200160405190810160405280929190818152602001828054600181600116156101000203166002900480156118025780601f106117d757610100808354040283529160200191611802565b820191906000526020600020905b8154815290600101906020018083116117e557829003601f168201915b505050505090806003018054600181600116156101000203166002900480601f0160208091040260200160405190810160405280929190818152602001828054600181600116156101000203166002900480156118a05780601f10611875576101008083540402835291602001916118a0565b820191906000526020600020905b81548152906001019060200180831161188357829003601f168201915b505050505090806004018054600181600116156101000203166002900480601f01602080910402602001604051908101604052809291908181526020018280546001816001161561010002031660029004801561193e5780601f106119135761010080835404028352916020019161193e565b820191906000526020600020905b81548152906001019060200180831161192157829003601f168201915b5050505050905085565b3373ffffffffffffffffffffffffffffffffffffffff166012600083815260200190815260200160002060030160009054906101000a900473ffffffffffffffffffffffffffffffffffffffff1673ffffffffffffffffffffffffffffffffffffffff16141515611a47576040517f08c379a00000000000000000000000000000000000000000000000000000000081526004018080602001828103825260268152602001807f6f6e6c7920746865206772616e746f722063616e2072656d6f766520636f6c6c81526020017f61746572616c000000000000000000000000000000000000000000000000000081525060400191505060405180910390fd5b60106012600083815260200190815260200160002060000154815481101515611a6c57fe5b906000526020600020906005020160008082016000905560018201600090556002820160006101000a81549073ffffffffffffffffffffffffffffffffffffffff02191690556003820160006101000a81549073ffffffffffffffffffffffffffffffffffffffff02191690556004820160006101000a81549073ffffffffffffffffffffffffffffffffffffffff0219169055505050565b600e5481565b3373ffffffffffffffffffffffffffffffffffffffff16600860003373ffffffffffffffffffffffffffffffffffffffff1673ffffffffffffffffffffffffffffffffffffffff16815260200190815260200160002060000160009054906101000a900473ffffffffffffffffffffffffffffffffffffffff1673ffffffffffffffffffffffffffffffffffffffff1614151515611c11576040517f08c379a00000000000000000000000000000000000000000000000000000000081526004018080602001828103825260198152602001807f4f776e65722063616e6e6f74207665726966792061737365740000000000000081525060200191505060405180910390fd5b60023390806001815401808255809150509060018203906000526020600020016000909192909190916101000a81548173ffffffffffffffffffffffffffffffffffffffff021916908373ffffffffffffffffffffffffffffffffffffffff160217905550506006600782815481101515611c8857fe5b9060005260206000209060050201908060018154018082558091505090600182039060005260206000209060050201600090919290919091506000820160009054906101000a900473ffffffffffffffffffffffffffffffffffffffff168160000160006101000a81548173ffffffffffffffffffffffffffffffffffffffff021916908373ffffffffffffffffffffffffffffffffffffffff1602179055506001820154816001015560028201816002019080546001816001161561010002031660029004611d59929190613571565b5060038201816003019080546001816001161561010002031660029004611d81929190613571565b5060048201816004019080546001816001161561010002031660029004611da9929190613571565b5050505060016007805490501115611eea576007600160078054905003815481101515611dd257fe5b9060005260206000209060050201600782815481101515611def57fe5b90600052602060002090600502016000820160009054906101000a900473ffffffffffffffffffffffffffffffffffffffff168160000160006101000a81548173ffffffffffffffffffffffffffffffffffffffff021916908373ffffffffffffffffffffffffffffffffffffffff1602179055506001820154816001015560028201816002019080546001816001161561010002031660029004611e95929190613571565b5060038201816003019080546001816001161561010002031660029004611ebd929190613571565b5060048201816004019080546001816001161561010002031660029004611ee5929190613571565b509050505b6007805480919060019003611eff91906135f8565b506001600c6000600e54815260200190815260200160002060006101000a81548160ff021916908315150217905550807f5bd81a4d257100f5fe7df72a9e528a7aaf33871f8258739a331d2627a83f0aac33604051808273ffffffffffffffffffffffffffffffffffffffff1673ffffffffffffffffffffffffffffffffffffffff16815260200191505060405180910390a250565b600080600080600580549050111515612016576040517f08c379a00000000000000000000000000000000000000000000000000000000081526004018080602001828103825260148152602001807f6e6f20617373657473207265676973746572656400000000000000000000000081525060200191505060405180910390fd5b60009150600090505b600580549050811015612041578180600101925050808060010191505061201f565b819250505090565b6000806000806006805490501115156120ca576040517f08c379a00000000000000000000000000000000000000000000000000000000081526004018080602001828103825260128152602001807f6e6f20617373657473207665726966696564000000000000000000000000000081525060200191505060405180910390fd5b60009150600090505b6006805490508110156120f557818060010192505080806001019150506120d3565b819250505090565b600a6020528060005260406000206000915054906101000a900460ff1681565b60126020528060005260406000206000915090508060000154908060010154908060020160009054906101000a900473ffffffffffffffffffffffffffffffffffffffff16908060030160009054906101000a900473ffffffffffffffffffffffffffffffffffffffff16908060040160009054906101000a900473ffffffffffffffffffffffffffffffffffffffff16905085565b600c6020528060005260406000206000915054906101000a900460ff1681565b6007818154811015156121e257fe5b90600052602060002090600502016000915090508060000160009054906101000a900473ffffffffffffffffffffffffffffffffffffffff1690806001015490806002018054600181600116156101000203166002900480601f0160208091040260200160405190810160405280929190818152602001828054600181600116156101000203166002900480156122ba5780601f1061228f576101008083540402835291602001916122ba565b820191906000526020600020905b81548152906001019060200180831161229d57829003601f168201915b505050505090806003018054600181600116156101000203166002900480601f0160208091040260200160405190810160405280929190818152602001828054600181600116156101000203166002900480156123585780601f1061232d57610100808354040283529160200191612358565b820191906000526020600020905b81548152906001019060200180831161233b57829003601f168201915b505050505090806004018054600181600116156101000203166002900480601f0160208091040260200160405190810160405280929190818152602001828054600181600116156101000203166002900480156123f65780601f106123cb576101008083540402835291602001916123f6565b820191906000526020600020905b8154815290600101906020018083116123d957829003601f168201915b5050505050905085565b60048181548110151561240f57fe5b906000526020600020016000915054906101000a900473ffffffffffffffffffffffffffffffffffffffff1681565b60096020528060005260406000206000915054906101000a900473ffffffffffffffffffffffffffffffffffffffff1681565b60028181548110151561248057fe5b906000526020600020016000915054906101000a900473ffffffffffffffffffffffffffffffffffffffff1681565b600f5481565b600b6020528060005260406000206000915090508060000160009054906101000a900473ffffffffffffffffffffffffffffffffffffffff1690806001015490806002018054600181600116156101000203166002900480601f01602080910402602001604051908101604052809291908181526020018280546001816001161561010002031660029004801561258d5780601f106125625761010080835404028352916020019161258d565b820191906000526020600020905b81548152906001019060200180831161257057829003601f168201915b505050505090806003018054600181600116156101000203166002900480601f01602080910402602001604051908101604052809291908181526020018280546001816001161561010002031660029004801561262b5780601f106126005761010080835404028352916020019161262b565b820191906000526020600020905b81548152906001019060200180831161260e57829003601f168201915b505050505090806004018054600181600116156101000203166002900480601f0160208091040260200160405190810160405280929190818152602001828054600181600116156101000203166002900480156126c95780601f1061269e576101008083540402835291602001916126c9565b820191906000526020600020905b8154815290600101906020018083116126ac57829003601f168201915b5050505050905085565b6126db61362a565b600e6000815480929190600101919050555060a0604051908101604052808673ffffffffffffffffffffffffffffffffffffffff168152602001600e5481526020018581526020018481526020018381525090506005819080600181540180825580915050906001820390600052602060002090600502016000909192909190915060008201518160000160006101000a81548173ffffffffffffffffffffffffffffffffffffffff021916908373ffffffffffffffffffffffffffffffffffffffff1602179055506020820151816001015560408201518160020190805190602001906127ca929190613670565b5060608201518160030190805190602001906127e7929190613670565b506080820151816004019080519060200190612804929190613670565b505050506007819080600181540180825580915050906001820390600052602060002090600502016000909192909190915060008201518160000160006101000a81548173ffffffffffffffffffffffffffffffffffffffff021916908373ffffffffffffffffffffffffffffffffffffffff1602179055506020820151816001015560408201518160020190805190602001906128a3929190613670565b5060608201518160030190805190602001906128c0929190613670565b5060808201518160040190805190602001906128dd929190613670565b505050508460096000600e54815260200190815260200160002060006101000a81548173ffffffffffffffffffffffffffffffffffffffff021916908373ffffffffffffffffffffffffffffffffffffffff16021790555080600860008773ffffffffffffffffffffffffffffffffffffffff1673ffffffffffffffffffffffffffffffffffffffff16815260200190815260200160002060008201518160000160006101000a81548173ffffffffffffffffffffffffffffffffffffffff021916908373ffffffffffffffffffffffffffffffffffffffff1602179055506020820151816001015560408201518160020190805190602001906129e2929190613670565b5060608201518160030190805190602001906129ff929190613670565b506080820151816004019080519060200190612a1c929190613670565b509050506001600a60008773ffffffffffffffffffffffffffffffffffffffff1673ffffffffffffffffffffffffffffffffffffffff16815260200190815260200160002060006101000a81548160ff0219169083151502179055506000600c6000600e54815260200190815260200160002060006101000a81548160ff02191690831515021790555080600b6000600e54815260200190815260200160002060008201518160000160006101000a81548173ffffffffffffffffffffffffffffffffffffffff021916908373ffffffffffffffffffffffffffffffffffffffff160217905550602082015181600101556040820151816002019080519060200190612b29929190613670565b506060820151816003019080519060200190612b46929190613670565b506080820151816004019080519060200190612b63929190613670565b509050508473ffffffffffffffffffffffffffffffffffffffff167f4d8a57afa1b1f737f79b2ba20b2c61815f8b50e980d93f9565861c11b539b95f338685604051808473ffffffffffffffffffffffffffffffffffffffff1673ffffffffffffffffffffffffffffffffffffffff1681526020018060200180602001838103835285818151815260200191508051906020019080838360005b83811015612c18578082015181840152602081019050612bfd565b50505050905090810190601f168015612c455780820380516001836020036101000a031916815260200191505b50838103825284818151815260200191508051906020019080838360005b83811015612c7e578082015181840152602081019050612c63565b50505050905090810190601f168015612cab5780820380516001836020036101000a031916815260200191505b509550505050505060405180910390a25050505050565b600581815481101515612cd157fe5b90600052602060002090600502016000915090508060000160009054906101000a900473ffffffffffffffffffffffffffffffffffffffff1690806001015490806002018054600181600116156101000203166002900480601f016020809104026020016040519081016040528092919081815260200182805460018160011615610100020316600290048015612da95780601f10612d7e57610100808354040283529160200191612da9565b820191906000526020600020905b815481529060010190602001808311612d8c57829003601f168201915b505050505090806003018054600181600116156101000203166002900480601f016020809104026020016040519081016040528092919081815260200182805460018160011615610100020316600290048015612e475780601f10612e1c57610100808354040283529160200191612e47565b820191906000526020600020905b815481529060010190602001808311612e2a57829003601f168201915b505050505090806004018054600181600116156101000203166002900480601f016020809104026020016040519081016040528092919081815260200182805460018160011615610100020316600290048015612ee55780601f10612eba57610100808354040283529160200191612ee5565b820191906000526020600020905b815481529060010190602001808311612ec857829003601f168201915b5050505050905085565b60116020528060005260406000206000915054906101000a900473ffffffffffffffffffffffffffffffffffffffff1681565b612f2a6136f0565b8273ffffffffffffffffffffffffffffffffffffffff163373ffffffffffffffffffffffffffffffffffffffff16141515612ff3576040517f08c379a000000000000000000000000000000000000000000000000000000000815260040180806020018281038252602c8152602001807f4f6e6c79207468652066756e642070726f76696465722063616e20637265617481526020017f6520636f6c6c61746572616c000000000000000000000000000000000000000081525060400191505060405180910390fd5b600f6000815480929190600101919050555060a060405190810160405280600f5481526020018681526020018573ffffffffffffffffffffffffffffffffffffffff1681526020018473ffffffffffffffffffffffffffffffffffffffff1681526020018373ffffffffffffffffffffffffffffffffffffffff16815250905060108190806001815401808255809150509060018203906000526020600020906005020160009091929091909150600082015181600001556020820151816001015560408201518160020160006101000a81548173ffffffffffffffffffffffffffffffffffffffff021916908373ffffffffffffffffffffffffffffffffffffffff16021790555060608201518160030160006101000a81548173ffffffffffffffffffffffffffffffffffffffff021916908373ffffffffffffffffffffffffffffffffffffffff16021790555060808201518160040160006101000a81548173ffffffffffffffffffffffffffffffffffffffff021916908373ffffffffffffffffffffffffffffffffffffffff1602179055505050508360116000600f54815260200190815260200160002060006101000a81548173ffffffffffffffffffffffffffffffffffffffff021916908373ffffffffffffffffffffffffffffffffffffffff1602179055508060126000600f548152602001908152602001600020600082015181600001556020820151816001015560408201518160020160006101000a81548173ffffffffffffffffffffffffffffffffffffffff021916908373ffffffffffffffffffffffffffffffffffffffff16021790555060608201518160030160006101000a81548173ffffffffffffffffffffffffffffffffffffffff021916908373ffffffffffffffffffffffffffffffffffffffff16021790555060808201518160040160006101000a81548173ffffffffffffffffffffffffffffffffffffffff021916908373ffffffffffffffffffffffffffffffffffffffff1602179055509050508273ffffffffffffffffffffffffffffffffffffffff168473ffffffffffffffffffffffffffffffffffffffff167f1a30b530e7f4b61ceb9e27f1d1662b374b921e209e3d22c16ce879301367dbc660405160405180910390a35050505050565b60068181548110151561335357fe5b90600052602060002090600502016000915090508060000160009054906101000a900473ffffffffffffffffffffffffffffffffffffffff1690806001015490806002018054600181600116156101000203166002900480601f01602080910402602001604051908101604052809291908181526020018280546001816001161561010002031660029004801561342b5780601f106134005761010080835404028352916020019161342b565b820191906000526020600020905b81548152906001019060200180831161340e57829003601f168201915b505050505090806003018054600181600116156101000203166002900480601f0160208091040260200160405190810160405280929190818152602001828054600181600116156101000203166002900480156134c95780601f1061349e576101008083540402835291602001916134c9565b820191906000526020600020905b8154815290600101906020018083116134ac57829003601f168201915b505050505090806004018054600181600116156101000203166002900480601f0160208091040260200160405190810160405280929190818152602001828054600181600116156101000203166002900480156135675780601f1061353c57610100808354040283529160200191613567565b820191906000526020600020905b81548152906001019060200180831161354a57829003601f168201915b5050505050905085565b828054600181600116156101000203166002900490600052602060002090601f016020900481019282601f106135aa57805485556135e7565b828001600101855582156135e757600052602060002091601f016020900482015b828111156135e65782548255916001019190600101906135cb565b5b5090506135f49190613762565b5090565b815481835581811115613625576005028160050283600052602060002091820191016136249190613787565b5b505050565b60a060405190810160405280600073ffffffffffffffffffffffffffffffffffffffff168152602001600081526020016060815260200160608152602001606081525090565b828054600181600116156101000203166002900490600052602060002090601f016020900481019282601f106136b157805160ff19168380011785556136df565b828001600101855582156136df579182015b828111156136de5782518255916020019190600101906136c3565b5b5090506136ec9190613762565b5090565b60a0604051908101604052806000815260200160008152602001600073ffffffffffffffffffffffffffffffffffffffff168152602001600073ffffffffffffffffffffffffffffffffffffffff168152602001600073ffffffffffffffffffffffffffffffffffffffff1681525090565b61378491905b80821115613780576000816000905550600101613768565b5090565b90565b61380291905b808211156137fe57600080820160006101000a81549073ffffffffffffffffffffffffffffffffffffffff021916905560018201600090556002820160006137d59190613805565b6003820160006137e59190613805565b6004820160006137f59190613805565b5060050161378d565b5090565b90565b50805460018160011615610100020316600290046000825580601f1061382b575061384a565b601f0160209004906000526020600020908101906138499190613762565b5b505600a165627a7a7230582061dee2e028be89966b1cdb2ffed819b8c6160f8e9be346fbe0e3a366ac9dc6e20029",
  "source": "pragma solidity >=0.4.22 <0.6.0;\n\ncontract AssetRegistree {\n  \n    // Owner of the asset \n    address owner;        \n    \n    // Person who verifies the asset\n    address verifier;\n    address[] public verifiers;\n\n    // Fund users\n    address grantor;\n    address[] public grantors;\n    \n    // Asset Description\n    struct Asset {\n      address asset_owner;\n      uint assetID;\n      string name;   // name of asset\n      string description; // asset description\n      string date_of_acquisition; // when the asset was bought\n    }\n    // array of assets\n    Asset[] public assets;\n    Asset[] public verifiedAssets;\n    Asset[] public unverifiedAssets;\n    \n\n    // Assign owner to asset \n    mapping(address => Asset) public ownerAddressToAsset;\n    // Assign assetCounter to owner\n    mapping (uint => address) public idToOwnerAddress;\n    //check if asset exists for a specific owner\n    mapping (address => bool) public assetCheck;\n    // assetID to Asset\n    mapping(uint => Asset) public idToAsset;\n    //check if the asset has been verified or not\n    mapping (uint => bool) public assetVerifiedCheck;\n    //map each asset to a verifier\n    mapping (address => Asset) public verifierToAsset;\n    \n    // Assign contract to the onwer of the asset\n    constructor() public {\n        //creator of the asset\n        owner = msg.sender;\n    }\n    \n    // Permissions\n     modifier onlyOwner() {\n         require(msg.sender == owner, \"Only the owner of the asset can perform this function\");\n         _;\n    }\n\n    //track the number of assets\n    uint public assetCounter = 0;\n\n    //register Asset event\n\n    event AssetRegistered(address indexed _asset_owner, address _registerar, \n                          string _name, string _date_of_acquisition);\n\n    // Anyone can register Asset\n    function registerAsset(\n      address _asset_owner,\n      string memory _name,\n      string memory _description,\n      string memory _date_of_acquisition) public {\n       //incrememnt assetCounter\n      assetCounter++;\n      //fill asset with information\n\n      Asset memory thisAsset = Asset(\n        _asset_owner, \n        assetCounter,\n        _name, \n        _description, \n        _date_of_acquisition);\n      //uint assetID = assets.push(Asset(owner, _name, _description, _date_of_acquisition,false));\n      // Push asset to all assets\n      assets.push(thisAsset);\n      // Push asset to unverified list\n      unverifiedAssets.push(thisAsset);\n      // Map the assetID to the owner\n      idToOwnerAddress[assetCounter] = _asset_owner;\n      // Map owner address to asset\n      ownerAddressToAsset[_asset_owner] = thisAsset;\n      // specific address owns an asset\n      assetCheck[_asset_owner] = true;\n      // specifies that the asset is not verified yet\n      assetVerifiedCheck[assetCounter] = false;\n      //ID to asset\n      idToAsset[assetCounter] = thisAsset;\n      //omit and show asset has been registererd\n      emit AssetRegistered(_asset_owner, msg.sender, _name, _date_of_acquisition);\n   \n    }\n\n    //get number of assets registered in the whole platform\n    function getAssetsRegistered() external view returns(uint) {\n        //require there to be songs\n        require(assets.length > 0 , \"no assets registered\");\n        //get number of songs registered\n        \n        //create a counter\n        uint counter = 0;\n        // for each asset in the asset array\n        for (uint i = 0; i < assets.length; i++){\n            //increment the counter\n            counter++;\n        }\n        //return the total count\n        return counter;\n    }\n    \n    //get number of assets registered in the whole platform\n    function getUnverifiedAssets() external view returns(uint) {\n        //require there to be songs\n        require(unverifiedAssets.length  > 0, \"no assets unverified\");\n        //get number of songs registered\n        \n        //create a counter\n        uint counter = 0;\n        // for each asset in the asset array\n        for (uint i = 0; i < unverifiedAssets.length; i++){\n            //increment the counter\n            counter++;\n        }\n        //return the total count\n        return counter;\n    }\n    \n    //event to verify asset\n    event AssetVerified(uint indexed _assetID, address _owner);\n     \n    // Verify Asset by Third Party\n    function verifyAsset(uint _assetID) public {\n        require(ownerAddressToAsset[msg.sender].asset_owner != msg.sender, \"Owner cannot verify asset\");\n        //store the address of the verifier\n        verifiers.push(msg.sender);\n        //return the specific asset\n         verifiedAssets.push(unverifiedAssets[_assetID]);\n         //uint index = unverifiedAssets[_assetID];\n         if (unverifiedAssets.length > 1) {\n         unverifiedAssets[_assetID] = unverifiedAssets[unverifiedAssets.length-1];\n         }\n         unverifiedAssets.length--; // Implicitly recovers gas from last element storage\n        // specifies that the asset is verified \n        assetVerifiedCheck[assetCounter] = true;\n        emit AssetVerified(_assetID, msg.sender);\n     }\n     \n     //get number of assets registered in the whole platform\n    function getVerifiedAssets() external view returns(uint) {\n        //require there to be songs\n        require(verifiedAssets.length > 0, \"no assets verified\");\n        \n        //create a counter\n        uint counter = 0;\n        // for each asset in the asset array\n        for (uint i = 0; i < verifiedAssets.length; i++){\n            //increment the counter\n            counter++;\n        }\n        //return the total count\n        return counter;\n    }\n    \n     function getAllAssets() public view returns (uint[]) {\n      // prepare output array\n      uint[] memory assetIds = new uint[](assetCounter);\n\n      uint numberOfAssets = 0;\n      // iterate over articles\n      for(uint i = 1; i <= assetCounter;  i++) {\n\n         assetIds[numberOfAssets] = idToAsset[i].assetID;\n         numberOfAssets++;\n      }\n      return assetIds;\n     }\n    \n    // struct to store details about collateral\n    struct Collateral                  \n    {\n        uint collateralID;\n        uint assetID;\n        address asset_owner;     \n        address grantor;           \n        address verifier;        \n    }\n    //CollateralCounter\n    uint public collateralCounter = 0;\n    //an array of collateral\n    Collateral[] public collaterals;\n    //map each collateral to address\n    mapping (uint => address) public collateralIDTOwnerAddress;\n    // map ID to collateral\n    mapping(uint => Collateral) public idToCollateral;\n\n    //event to verify asset\n    event collateralCreated(address indexed _asset_owner, address indexed _grantor);\n\n    // Use asset as collatoral\n    function createCollateral(\n      uint _assetID,\n      address _asset_owner, \n      address _grantor,\n      address _verifier) public {\n      require(msg.sender == _grantor, \"Only the fund provider can create collateral\");\n      //increase counter\n      collateralCounter++;\n      //store the new data into the struct collateral\n      Collateral memory thisCollateral = Collateral(\n       collateralCounter,\n       _assetID,\n        _asset_owner, \n        _grantor,\n        _verifier);\n      //push new collateral into array\n      collaterals.push(thisCollateral);\n      //map the collateral id to the owner address\n      collateralIDTOwnerAddress[collateralCounter] = _asset_owner;\n      //map id to collateral\n      idToCollateral[collateralCounter] = thisCollateral;\n      //emit event that the asset has been removed\n      emit collateralCreated(_asset_owner, _grantor);\n    }\n\n  \n    // Remove collateral \n    function removeCollateral(uint _collateralID) public{\n      require(idToCollateral[_collateralID].grantor == msg.sender, \"only the grantor can remove collateral\" );\n      //remove the collateral from the collaterals list\n      delete collaterals[idToCollateral[_collateralID].collateralID];\n    }\n    \n\n}\n",
  "sourcePath": "/Users/kungelamzuku/Desktop/AgriRegistree/contracts/AssetRegistree.sol",
  "compiler": {
    "name": "solc",
    "version": "0.4.24+commit.e67f0147.Emscripten.clang"
  },
  "schemaVersion": "2.0.1",
  "updatedAt": "2019-01-14T11:17:35.920Z"
}